:100000000C9439020C9456020C9456020C9456022D
:100010000C9456020C9456020C9456020C94560200
:100020000C9456020C9456020C94DA210C94AE22D5
:100030000C94FB1B0C9456020C9456020C94560222
:100040000C9456020C9456020C9456020C945602D0
:100050000C9456020C949E1C0C9456020C9456025E
:100060000C9456020C9456020C9456020C945602B0
:100070000C9456020C9456020C9456020C945602A0
:100080000C9456020C9456020C9456020C94560290
:100090000C9456020C9456020C9456020C94560280
:1000A0000C9456020C9456020C9456020000000068
:1000B0000000000000000000000000000000000040
:1000C0000000000000000000000000000000000030
:1000D0000000000000000000000000000000000020
:1000E0000000000000000000000000000000000010
:1000F0000000000000000000000000000000000000
:1001000000000000000000000000000000000000EF
:1001100000000000000000000000000000000000DF
:1001200000000000000000000000000000000000CF
:1001300000000000000000000000000000000000BF
:1001400000000000000000000000000000000000AF
:10015000000000000000007800700870000000F847
:100160002838003828100038283E00F8005800F8D9
:10017000283800000000000000000000000000001F
:1001800000000000000000000000000000E0E0E0CF
:10019000E0E0E0E0E00000000000000000000000FF
:1001A000000000000000000000000000000000004F
:1001B000000000000000000000000000000000003F
:1001C000000000000000000000000000000000909F
:1001D000B8E848007CC080C0FC0000FCDA8A7200ED
:1001E00000F80090B8E8480040E8A8A8F83000F807
:1001F000888888700000F800F80000F88888887007
:1002000000000000000000000000000080C1E3F7D3
:10021000FFFFF7F3E1C00000000000000000000055
:1002200000000000000000000000000000000000CE
:1002300000000000000000000000000000000000BE
:1002400000000000000000000000000000000000AE
:10025000000000000000000000000000000000009E
:100260000002000000000000000000000000000785
:100270000000000000000300020000070000000072
:10028000000000000000000000000000010F1F3F00
:100290003F3F1F1F0F030000000000000000000090
:1002A0000000000000000000000000005F0060008F
:1002B0006100AE0000005C005D005E00AB0000006D
:1002C00059005A005B00AC00000062004C0058006E
:1002D000B200A80000AE00AF00DA0281FFD9F1DB66
:1002E00020A4A62EAF00A0C0D30000A1C8D3000058
:1002F000AED580A81F408D1420000E036400690055
:100300006C0070006100640000001A034400690082
:100310006C006C006F006E002000480069006300F4
:100320006B00730000000403090409023B00020192
:1003300000A0FA09040000010301010009211101D4
:10034000000122440007058103080001090401009F
:10035000010300000009211101000122B600070578
:1003600082032000011201000200000008EDFE00DF
:100370000000010102000105010902A10185020935
:1003800001A1000509190129081500250195087525
:100390000181020501093009311581257F9502751A
:1003A00008810609381581257F95017508810605A4
:1003B0000C0A38021581257F950175088106C0C099
:1003C00005010980A101850319012AB7001501263D
:1003D000B700950175108100C0050C0901A10185C8
:1003E0000419012AA002150126A0029501751081A9
:1003F00000C005010906A1018506050719E029E7E6
:10040000150025019508750181020507190029EFDE
:100410001500250195F075018102050819012905CE
:10042000950575019102950175039101C0050109BA
:1004300006A101050719E029E715002501950875B2
:100440000181029501750881010507190029FF1531
:100450000026FF0095067508810005081901290589
:10046000150025019505750191029501750391010E
:10047000C00011241FBECFEFDAE0DEBFCDBF11E018
:10048000A0E0B1E0ECE8FBE402C005900D92A23BD5
:10049000B107D9F725E0A2EBB1E001C01D92A3326C
:1004A000B207E1F70E94AD110C9485250C94000071
:1004B00060E072E08CEA90E00E94881280E008958B
:1004C000811112C0643080F4453070F4E42FF0E004
:1004D00085E0689FE00DF11D1124EE0FFF1FE4552C
:1004E000FD4F85919491089581E090E008950E94D8
:1004F0006002089581E008950E947A02089581E0E3
:1005000008950E947A0208950E9481020895089534
:100510000E9487020895A6E0B0E0E1E9F2E00C94C1
:10052000E62449835A839E833091B90189819A8157
:1005300031111AC03E81332399F0222389F00E94A1
:100540002D08182F682F89819A810E9409086981D6
:100550007A81812F0E94460F2696E3E00C940225B3
:100560000E941B08182FF3CF0E942D0869817A8101
:10057000F1CFFC01262F40815181628173818481FA
:1005800095810E948B020895CF93DF93EC0161E087
:100590000E94B902BE010E947C02DF91CF910895B2
:1005A000CF93DF93EC0160E00E94B902BE010E948C
:1005B0008802DF91CF91089581E008950E94DC02C6
:1005C0000895CF93C82F0E94DE068C2F0E94DE0272
:1005D0002FEF84E39CE0215080409040E1F700C081
:1005E0000000CF91089581E00E94E1020E94C21CA8
:1005F000089580E00E94E1020E94D31C08950F93A9
:100600001F93CF93DF938C0161E00E94B902EC014C
:10061000F8018581882319F0CE010E942A19B801BA
:10062000CE010E948402811106C080E0DF91CF914B
:100630001F910F910895B801CE010E94C61888231A
:10064000A1F3B801CE010E94F014882371F3B80120
:10065000CE010E94C614882341F3F80185818823C6
:1006600061F0C330FCE7DF07E9F058F4C115ECE7AF
:10067000DE07A9F0C130DC47B9F0C8010E947F0253
:10068000D5CFCB358CE7D807A9F0CC35ECE7DE0722
:1006900071F0CA35DC4789F70E94740CEECF0E94D6
:1006A000F302C3CF0E947C0C0E94F902BECF0E94CD
:1006B0006A0CE3CF0E94780CE0CF0E94D81B0E9406
:1006C00086030E94E21308950E948A030E94DD1BA4
:1006D0000895089581E008950895CF93DF93D82F6A
:1006E0000E946A03C82F882319F08D2F0E946C0383
:1006F0008C2FDF91CF9108950895CF93C82F0E943A
:1007000069038C2F0E946D03CF91089580E00E94B1
:100710007D0308950E94181A0E947D030895CF93C7
:100720000E94181AC82F8091B4018C1779F0C093D9
:10073000B4010E94671C6093B5017093B601809369
:10074000B7019093B8018C2F0E947D03CF9108953B
:10075000ADE0B0E0EEEAF3E00C94E7244887598777
:100760006A877B878C879D8791110E947A0B1F82F5
:1007700086E0FE013896DE01119601900D928A9571
:10078000E1F78D8181110DC029813A814B815C8116
:100790006D817E818F810E94C40A2D96E2E00C94C7
:1007A0000325CE0101960E94C4028111EDCFF5CF41
:1007B000FC012481213021F4808191810E945F0815
:1007C0000895662329F00E9451160E943617089555
:1007D0000E94BD16FACFCF93C82F882399F08CEFD3
:1007E0008C0F813A88F48C2F0E94B81A882329F044
:1007F0008C2F0E94581B0E940E0C8C2F0E94411BB4
:100800000E940E0CCF91089580E28C0F883048F43E
:10081000C77081E001C0880FCA95EAF70E945D0B9E
:10082000EFCFEBE5EC0FE33040F4F0E0EB5AFE4F96
:10083000808190E00E944C1AE5CFE8E5EC0FEB31A7
:1008400050F4F0E0EE0FFF1FE15EFE4F80819181DA
:100850000E94711AD7CF83E38C0F833198F661E041
:100860008C2F0E94E103CECF882381F19CEF980F5B
:10087000913A28F40E94581B0E940E0C089590E2B1
:10088000980F983050F4877091E001C0990F8A95C5
:10089000EAF7892F0E94630BEFCF9BE5980F933007
:1008A00028F490E080E00E944C1A089598E5980F93
:1008B0009B3128F490E080E00E94711A089593E340
:1008C000980F933118F460E00E94E10308951F939C
:1008D000CF93DF93182FEB010E94EB03209739F49D
:1008E000812F0E943404DF91CF911F9108958FE9E9
:1008F0009FE00197F1F700C000002197EFCF70E073
:1009000060E0893311F460E570E00E9467040895A7
:10091000882321F00E945D0B0E940E0C089588230D
:1009200021F00E94630B0E940E0C0895B0E0A0E03D
:10093000ECE9F4E00C94E0246C01D62FC72FFC0105
:100940001581068102950F700E94530BE82E8823B3
:10095000F9F0E12E1123E1F08C2F807F803461F0DB
:1009600080E28D0F883008F18C2F807E803221F458
:10097000D230D8F00023C9F08091030382FF15C064
:1009800082E00E943E0C0E94530B91E0E82EE92683
:10099000BC2EB2949FE0B922FBE0FB15B8F1EB2D21
:1009A000F0E0E957FA4D0C94BE24E12CF1CF0C2F66
:1009B0000F70C07F11F00295007F112399F0002382
:1009C00059F080E28D0F883010F0D11107C0802FD0
:1009D0000E945D0B0E940E0C8D2F5AC0802F0E942A
:1009E0006D0BF8CF8D2F0E943404002379F080E244
:1009F0008D0F883010F0D11104C0802F0E94630B3E
:100A000003C0802F0E94730B0E940E0CEB2DE85048
:100A1000FF0B349720F40E94181A0E947D03EE20E9
:100A200089F00E944F0B80FD0DC0F60115820E94D7
:100A3000490B0E946707C6010E94A5060E94490B48
:100A40000E947707CDB7DEB7E9E00C94FC242C2F89
:100A50002F70F22EC07FC03219F0F29480EFF8228E
:100A6000DD2341F0D130D1F1112309F444C000233A
:100A7000F1F0B2CF8091030382FD15C0112359F02C
:100A8000FF2029F08F2D0E945D0B0E940E0C80E04C
:100A90000E94EB03BBCF80E00E943404FF2009F4E6
:100AA000B5CF8F2DABCF112369F0011104C08F2D6D
:100AB0000E948804ABCF013009F0A8CF8F2D0E948F
:100AC000910BA4CF0111A2CF8F2D0E948F048F2DE7
:100AD0000E949D0B8F2D0E94810B98CF112321F036
:100AE000063008F093CFE3CF053008F08FCF8F2D7D
:100AF0000E948F048BCF0023D1F3D93349F43FEF09
:100B000087EE93E0315080409040E1F700C0000054
:100B10008D2F0E9434047ACF8C2F86958695837012
:100B200069F0813009F072CF8D2F9C2F93701111D5
:100B300002C080E090E00E94711A68CF8D2F9C2F38
:100B40009370111102C080E090E00E944C1A5ECFB9
:100B5000612F8D2F0E94E10359CF8C2F8370A1F557
:100B6000111154CF4D2F429546954770440F440FB5
:100B70002D2F2F7030E0042E02C0220F331F0A9455
:100B8000E2F790E080E0D4FF09C08FE090E002C07F
:100B9000880F991F4A95E2F780959095C695C6955E
:100BA000C370822B932BC23049F058F4C13019F036
:100BB0000E9437072BCF0E942E0728CF0E944007A4
:100BC00025CF0E942B0722CF8695112311F08C2F61
:100BD0008170882309F41ACF4D2F429546954770AE
:100BE000440F440F2D2F2F7030E0042E02C0220F2F
:100BF000331F0A94E2F790E080E0D4FF09C08FE051
:100C000090E002C0880F991F4A95E2F78095909571
:100C1000C695C695C370822B932BC23049F058F409
:100C2000C13019F00E94A207F1CE0E949907EECEC2
:100C30000E94AB07EBCE0E944F07E8CECF70112386
:100C400029F08C2F0E9467078D2F32CF8D2F0E94A5
:100C50008F048C2F0E947707D9CED23F41F160F4E8
:100C6000D03FB9F0D13F81F0112309F446C0011102
:100C7000B3CE8C2F8F711FC0D33F01F1D43FA1F7AA
:100C80008091030382FD24C08C2F8F71112311F3F7
:100C900012C0112341F0053008F0B8CE8C2F8F71AF
:100CA0000E948907B3CE063008F0B0CEF7CF8C2F64
:100CB0008F711111CFCF0E946707A8CE112329F0A1
:100CC0008C2F8F710E945B07A1CE0E9456079ECE8B
:100CD000112349F0CF718C2F0E94670763E08C2F9E
:100CE0000E94200C93CE81E00E943E0C023008F45A
:100CF0008DCE82E00E943E0C89CE002359F0D9337C
:100D000009F006CFEFEFF7EE23E0E150F04020408E
:100D1000E1F7FCCE8C2F8F719DCF0F931F93CF9354
:100D2000DF93EC01688179818D810E946A088C01D2
:100D30000E94B4070E942A07B801CE010E949604BF
:100D4000DF91CF911F910F910895CF93DF93EC0125
:100D50008C81882399F0CE010E94FF02811111C07D
:100D60000E94530B882351F08D81882339F08091A4
:100D7000030382FF03C082E00E943E0CDF91CF910B
:100D80000895CE010E948D06CE010E94D002F6CFBA
:100D900090E080E00E944C1A90E080E00E94711A7E
:100DA0000E947A0B0E940E0C0E9452170E94361766
:100DB00008950E946F1B0E94C80608950E946A0B46
:100DC0000E94D906089592959F70963091F058F43C
:100DD000925F9F70923058F4803F19F030F4883E53
:100DE00030F481E008959A5FF4CF843FD1F380E03E
:100DF0000895883EB0F3813FD1F7F3CFFC01248101
:100E0000222339F0808191810E945F080E94E306CD
:100E1000089580E00895A6E0B0E0E1E1F7E00C94E9
:100E2000E7242696E2E00C940325A7E0B0E0EBE18E
:100E3000F7E00C94E7242796E2E00C94032508954C
:100E40000E941F0708950E9420079093C901809374
:100E5000C801089508950E94230708952091C801AC
:100E60003091C901822B932B0E9423070895209172
:100E7000C8013091C901822393230E94230708955A
:100E80002091C8013091C901822793270E9423072E
:100E900008950E941F0708950E94490708950E941F
:100EA0004C079093C7018093C601089590E080E0BD
:100EB0000E944F07089521E030E0A90102C0440FCD
:100EC000551F8A95E2F7CA010E944F07089521E055
:100ED00030E002C0220F331F8A95E2F78091C601ED
:100EE0009091C701822B932B0E944F07089521E018
:100EF00030E002C0220F331F8A95E2F7209530952B
:100F00008091C6019091C701822393230E944F07CD
:100F1000089521E030E002C0220F331F8A95E2F7E6
:100F20008091C6019091C701822793270E944F07A5
:100F300008952091C6013091C701822B932B0E9406
:100F40004F0708952091C6013091C7018223932352
:100F50000E944F0708952091C6013091C701822752
:100F600093270E944F0708950895262F277091E038
:100F700001C0990F2A95EAF723E0769567952A959F
:100F8000E1F7660F771F660F771FFA01E60FF71F6D
:100F900050E040E0682F70E08191DF0111979B01E4
:100FA000042E02C0369527950A94E2F72170219508
:100FB0002827292328272C934F5F5F4F4430510562
:100FC00059F70895A82FA77023E0969587952A953D
:100FD000E1F7880F991F880F991FFB01E80FF91F90
:100FE00050E040E080E0219130E00A2E02C03695CA
:100FF00027950A94E2F721703327042E01C0220FAF
:101000000A94EAF7822B4F5F5F4F4430510559F73E
:101010000895262F943070F4853060F4682F70E0C6
:1010200085E0989F600D711D11244AEB51E0822FDD
:101030000E94B5070895292F943068F4853058F43C
:1010400090E06AEB71E035E0239F800D911D112443
:101050000E94E207089580E00895B0E0A0E0E3E395
:10106000F8E00C94E0247C010091C6011091C701C6
:101070008091C8019091C901082B192BCFE0D0E0D5
:10108000CC24C394D12CBC2EC6010C2E02C0880FD8
:10109000991F0A94E2F780239123892B49F4219721
:1010A00090F7B12C8B2DCDB7DEB7E9E00C94FC2482
:1010B000B7018C2F0E94520F019789F3F3CFCF9382
:1010C000DF93EC010E942D08BE010E94520FDF91B8
:1010D000CF9108951F93CF93DF93EB019091B901C6
:1010E000992339F0CB010E945F08DF91CF911F91C6
:1010F0000895882369F0CB010E942D08182F682FCE
:10110000CE010E940908BE01812F0E94520FEDCF2F
:10111000CB010E941B08182FF6CF1F93CF93DF93AC
:10112000C091CA0117E08091CB018C1304C0DF91FC
:10113000CF911F910895D0E01C9FF0011D9FF00DED
:101140001124E453FE4F2081318142815381648117
:10115000758186810E9415072196C770E4CF209182
:1011600004023091050240910602509107026091FD
:1011700008027091090280910A020E9415070895E1
:10118000CF93DF9380910A02807F09F04DC0809158
:101190000902882309F448C0E091CA015091CB01AB
:1011A000C0910502D091040260910602709107027D
:1011B00047E05E17C9F18E2F90E0E49FF001112403
:1011C000E453FE4F2481222391F1489FF001499F6F
:1011D000F00D1124DF01A453BE4F11962C911197ED
:1011E0002C1325C02C912D1322C015962C911597E8
:1011F00021111DC012962D913C91261B370B283CC6
:101200003105A8F480910A028F70806180930A02F0
:10121000EE52FE4F80818F708061808384E092E087
:101220000E94A5060E948D08DF91CF910895FC01D0
:101230003196E770BECF482F2091CA019091CB0123
:1012400057E0291302C080E0089530E0529FF0017A
:10125000539FF00D1124E453FE4F8181681306C0A3
:101260008081481303C085818111EECF2F5F3F4FEE
:101270002770E7CFA4E1B0E0E0E4F9E00C94DD24CE
:101280008C0186E0F801DE011F9601900D928A958F
:10129000E1F7F8018481E58094E0A92E92E0B92E6F
:1012A0009091080291111FC08823D1F0EE20A9F07F
:1012B000C8010E94FE06F82E882379F087E0F80125
:1012C000D50101900D928A95E1F7C5010E94D803DE
:1012D0000E94C0080E94AF085FC0C8010E94A50616
:1012E000FF24F39459C0C080D18082809380F09015
:1012F00009022091060230910702A401421B530B00
:10130000FF2009F4F9C0483C510508F0A7C0882324
:1013100009F442C09091050280910A02282F207F93
:1013200009F05CC09D1116C090910402C91212C050
:10133000E1104EC08F70806180930A020E94AF0856
:1013400084E092E00E94A50680910A02F80186835B
:10135000F12C22C0E1103CC06D2D8C2D0E941B0988
:101360006D2D8C2D0E941B09E82E8111F1CFCF86A7
:10137000D88A8F8598890E945F08292F22952F701F
:10138000243078F49F702230A8F09923B9F0F80146
:101390009681907F99F4FE2C8F2D6496ECE00C944E
:1013A000F9242A5F2F70223068F0C8010E94A50638
:1013B000EF2CF1CF992311F0882369F3805E8830F8
:1013C00050F3F3CF803F38F3815F833070F7E3CF82
:1013D00080910A02816080930A02BACF9D1113C0E6
:1013E00090910402C9120FC0E1100DC08683C8019C
:1013F0000E94A50687E0F801A4E0B2E001900D92FA
:101400008A95E1F767CFC8010E94FE06882309F498
:1014100064CFEE2009F461CF80910A02803288F017
:101420002091040230910502398728879B868A869D
:10143000909108029C871D868E87CE0108960E9497
:10144000A50687E0F801A4E0B2E001900D928A952C
:10145000E1F70E94C0080E94AF0842CF90910A02B3
:10146000292F207FA1F4682D9A8A898AA6017A897A
:101470009E2D0E940B0784E092E00E94A50687E063
:10148000F50111928A95E9F70E94AF0861CF882390
:1014900009F482CF809105028D1110C08091040261
:1014A000C8120CC0E1100AC09683C8010E94A506AC
:1014B00087E0F50111928A95E9F76ECFC8010E9485
:1014C000FE06882309F409CFEE2009F406CF8091A7
:1014D0000A02803208F4B5CF20910402309105024F
:1014E0003A8329839C828B82909108029D831E827D
:1014F0008F83CE010196A3CF483C5105B8F58823D0
:1015000009F4EECEFE2CEE2009F4E7CE8091050220
:101510008D111EC080910402C8121AC080910A0267
:1015200080FD0DC0982F907F51F08683903F09F485
:101530005ECF982F907F905F8F70892B57CF87E079
:10154000F801A4E0B2E001900D928A95E1F724CF72
:10155000C8010E94FE06811174CF80910A02816049
:1015600080930A02C8010E94A50616CF682D9A8AA8
:10157000898AA6017A899E2D0E940B0787E0F501D2
:1015800011928A95E9F7A6CEAEE0B0E0EAECFAE077
:101590000C94E624288739874A875B876C877D8788
:1015A0008E87CE0108960E943A098823B1F06C8597
:1015B000662341F0288539854A855B857D858E8542
:1015C0000E94150717E08091CA019091CB01891301
:1015D0003DC02E96E3E00C94022587E0FE0138968C
:1015E000DE01119601900D928A95E1F78C85882392
:1015F00049F32091CB0130E0C9010196877099270A
:101600004091CA014817190699F097E0929FD001BE
:10161000939FB00D1124A453BE4FFE01319601904B
:101620000D929A95E1F78093CB010E948D08CACF65
:101630000E94DE061092CB011092CA0187E0E4E01E
:10164000F2E0DF011D928A95E9F7BCCF819FC001CE
:10165000112484539E4F0E943A09882309F4B9CF7C
:10166000E091CA011E9FF0011124E453FE4F208136
:101670003181428153816481758186810E94150781
:101680008091CA0190E00196877099278093CA01E2
:101690009ACF80913302869586958695089580919C
:1016A00033028770089590913302977081E009F4B6
:1016B00080E0089580915F02089590915F02892BE8
:1016C00080935F020895809590915F029823909394
:1016D0005F02089510925F02089590915E02892B37
:1016E00080935E020895809590915E029823909376
:1016F0005E02089510925E02089508950E947D0B87
:10170000089590913402292F282331F08095892360
:10171000809334020E947E0B089508950E948D0BE1
:10172000089590913502292F2823281729F0982B06
:10173000909335020E948E0B089590913502292FC7
:10174000282331F080958923809335020E948E0BE7
:10175000089580913502882329F01092350280E0A7
:101760000E948E0B0895CF93C0915F0280915E021C
:10177000C82B80913502882331F0C82B0E94961A1D
:1017800081110E94A90B8C2FCF910895CF93DF93E5
:10179000C0910201D09103010E94B30B8883C091D4
:1017A0000201D091030148E050E06BE272E0CE010B
:1017B0000E941D25892B59F088E0FE01ABE2B2E0C2
:1017C00001900D928A95E1F7CE010E94251ADF91D2
:1017D000CF910895CF93DF93C0910001D091010183
:1017E0000E94B30B8983C0910001D091010140E2B6
:1017F00050E06BE072E0CE010E941D25892B59F06C
:1018000080E2FE01ABE0B2E001900D928A95E1F733
:10181000CE010E94301ADF91CF91089580911E0170
:10182000882339F08091020387FF03C00E94EA0BEE
:1018300008950E94C60B089508950E941C0C0895F7
:101840009091030392FF11C098E0899F90011124A9
:10185000622B609333020E94670780913302869562
:10186000869586950E941D0C08950E94670708952D
:101870001092330280E00E941D0C08959091330273
:101880008095892380933302282F277069F4891764
:1018900059F09091030392FF07C08695869586952F
:1018A0000E9477070E94380C08959091030392FBE1
:1018B000222720F9281769F080FB92F990930303FF
:1018C00080910203909103030E949D0C82E00E948C
:1018D0003E0C08958091030382FB882780F991E0F4
:1018E00089270E94550C089581E00E94550C0895A7
:1018F00080E00E94550C08956FEF7FEF90E080E04C
:101900000E946F25089590E080E00E943B2521E031
:10191000863E9E4F09F020E0822F089582E090E0FD
:101920000E943325089583E090E00E9433250895B6
:1019300084E090E00E943B250895BC0184E090E0A3
:101940000E946F250895AB01BC018FE090E00E94DA
:1019500063250895AB01BC0183E190E00E946325FB
:10196000089560E070E0CB010E94AA0C089560E049
:1019700070E0CB010E94A30C0E94B10C0895A8E076
:10198000B0E0E5ECFCE00C94E72466EE7EEF90E03E
:1019900080E00E946F2560E082E090E00E94512587
:1019A00081E090E09093C9018093C80161E083E0F9
:1019B00090E00E94512560E074E184E090E00E9494
:1019C0006F2560E086E090E00E9451256FEF87E090
:1019D00090E00E94512540E050E0BA0188E090E09C
:1019E0000E94632560E084E290E00E94512560E05F
:1019F00087E190E00E94512560E08CE090E00E9439
:101A0000512560E08DE090E00E94512519821A82F4
:101A10001B821C821D821E821F82188648E050E0B5
:101A200068E170E0CE0101960E94412540E050E05F
:101A3000BA0180E290E00E9463250E94B70C2896CC
:101A4000E2E00C9403250E94BF0C0895682F8EE0FD
:101A500090E00E9451250895A6E0B0E0E2E3FDE0A9
:101A60000C94E5240E945B1C8C0180916002909193
:101A700061028017910781F019821A820E945B1C13
:101A8000682F49815A81792F80E090E00E94A80355
:101A900010936102009360022696E4E00C94012505
:101AA0000E94671C60936E0270936F0280937002B5
:101AB0009093710260936A0270936B0280936C0240
:101AC00090936D0208950E94671C60936E0270935C
:101AD0006F0280937002909371026093660270931C
:101AE00067028093680290936902089508950895AB
:101AF0000E94760D089508950E947B0D089588E454
:101B000090E10E94BA110E94770D0E94780D08950D
:101B100081E008950E94880D08950E94880D08951F
:101B2000089508950E94900D0E94910D08950E94BD
:101B30004B100E947C0308950E94521C0E9448147E
:101B40000E9412110E94970D80E00E9425120E94AF
:101B50007C0D0895A6E0B0E0E0EBFDE00C94DD2400
:101B60000E948A0DC82E811111C00E942C0DC12C1B
:101B70000E943F190E946714882309F45DC00E94E7
:101B8000630D0E9400140E94C8125AC00E942811BE
:101B900082E6A82E82E0B82E750110E0F7010191CF
:101BA0007F01812F0E9471101F5F143009F441C022
:101BB0000817A1F38091720281FD0E9477100E94A4
:101BC0008D0D982E10E088248394812F0E9471102F
:101BD000082FF50181915F01081729F1F12CEE24FE
:101BE000E394D02ED8268D2D8E21A9F0992099F03E
:101BF000F9821A830E945B1C9C838B838D8291E007
:101C0000802F8E2109F490E049815A816B817C817B
:101C10008D810E94A803F394EE0CF5E0FF12E3CF50
:101C2000F501319700831F5F143079F60E94500D43
:101C30009FCF0813BFCF99CF0E940014C110A3CF2C
:101C40000E9474170E948F032696ECE00C94F924EE
:101C50001F93CF93DF930E94570FEC01C11580E5CE
:101C6000D807F0F5C11580E4D80708F09CC0C03E45
:101C7000D10520F5CD3CD10508F082C0C83AD10588
:101C800078F4C53AD10508F073C0C130D10519F117
:101C9000209709F1C430D105F0F4D0E0C0E01BC0BA
:101CA000C33CD105D0F7C85AD0E0CC0FDD1FC85ACD
:101CB000DE4F0990D881C02DD4640DC0C11580E2DB
:101CC000D80708F0D1C0C11581E0D80708F05AC084
:101CD000C83ED10510F7CE01DF91CF911F91089535
:101CE000C03682E5D80718F5C03482E5D80708F079
:101CF0006BC0C03282E5D80708F05FC0C11582E52D
:101D0000D80708F497C02C2F2695269580E2289FA7
:101D1000900111248C2F8370C1E0D0E002C0CC0F61
:101D2000DD1F8A95E2F7C22BD32BDD68D4CFC03AF2
:101D300082E5D80760F4C03882E5D80708F459C0B6
:101D4000CF71D0E0DC2FCC27C46FD06AC4CFC03CA9
:101D500082E5D80708F462C0C03E82E5D80708F0E3
:101D60009CCFDC2FCC27CC27DF71C06FD06AB3CFDC
:101D7000C55AD0E0C257DE4FC881D0E0D064ABCFA7
:101D8000D065A9CF8D2F0E94F90F182FCE0199276A
:101D90000E94570FC12FD0E0DC2FCC27CC27DF715A
:101DA000C82BD92B98CFCE0199270E94570FCC274B
:101DB000DF70C82BD92BD06A8ECFCF71D0E0DC2F4B
:101DC000CC27C16FD06A87CF2C2F269526952770F8
:101DD00080E2289F900111248C2F8370C1E0D0E015
:101DE00002C0CC0FDD1F8A95E2F7C22BD32BDC6833
:101DF00072CF2C2F26952695277080E2289F900180
:101E000011248C2F8370C1E0D0E002C0CC0FDD1F05
:101E10008A95E2F7C22BD32BDA685DCF8C2F8F71B6
:101E20000E94F90FC82FD0E0DC2FCC27CC27DF7120
:101E3000D06251CF8C2F8F710E94F90F55E0D6954B
:101E4000C7955A95E1F7CF70D0E0DC2FCC27282F2B
:101E500030E084FF05C044E0220F331F4A95E1F7CC
:101E6000C22BD32BD06937CF8D2F8F710E94F90FE2
:101E7000182FCE0199270E94570FC12FD0E0DC2FD9
:101E8000CC27CC27DF71C82BD92BD2CF462F74306B
:101E900030F4653020F4672F0E947702089590E0B7
:101EA00080E008950E94460F0E94280E089582380F
:101EB0009105B9F1B0F48133910509F47DC048F47E
:101EC0008932910509F46DC08A32910509F47BC00D
:101ED00008958533910509F45FC08933910509F1AF
:101EE0000895833E9105D9F138F4803E910529F19A
:101EF000823E910579F10895863E9105D9F1873E9C
:101F0000910509F43EC0843E910541F520910303FB
:101F100021FF24C08091020384FD19C087EE90E068
:101F2000089520910203237009F05AC02091030301
:101F300023FF14C089E290E008952091020320FD60
:101F400038C03091030330FF09C024FF43C090E044
:101F500080E008952091020322FDF7CF089520919B
:101F6000020322FD3AC03091030330FD39C024FF43
:101F7000F5CFEDCF2091020323FFF0CF24FDE7CF73
:101F8000CDCF2091020323FD2EC03091030331FFFA
:101F9000EECF84EE90E008952091020325FFDECF7E
:101FA000C9CF2091020325FD21C02091030323FF07
:101FB000D5CF89E390E0D2CF2091020326FFCECF88
:101FC0008AE290E008952091020326FFC7CF81E3C3
:101FD00090E0089583EE90E0089582EE90E00895F9
:101FE00080EE90E0089586EE90E0089585E390E01D
:101FF00008959091020392FF10C041E0282F2471B0
:10200000243009F040E031E0282F2871283009F011
:1020100030E0431711F02CE0822793FF10C041E01D
:10202000282F2471243109F040E031E0282F287155
:10203000283109F030E0431711F02CE0822730916D
:10204000030330FF10C051E0282F2171213009F027
:1020500050E041E0282F2871283009F040E0541763
:1020600011F029E0822731FF10C041E0282F2171B3
:10207000213109F040E031E0282F2871283109F0A2
:1020800030E0431711F029E0822794FD877E089500
:1020900080E0089508950E94830C811102C00E947F
:1020A000230D0E948E0C809372020E94980C9093D4
:1020B0000303809302030E944A100E94930C90E055
:1020C0000E942B078091C6019091C7010E944C0786
:1020D000089508950E946910089508950E946D1052
:1020E0000895E82FF0E0E85FFC4F8081089508959F
:1020F00080EA8A95F1F7089500C008950E9478104B
:102100000895F894E82FE295EF70F0E031A1282FC0
:102110002F7081E090E001C0880F2A95EAF7982F90
:102120009095932391A392A1892B82A378940895EB
:10213000CF93DF9381E30E94811083E30E9481109B
:1021400082E30E94811086E30E948110C1E9D1E000
:1021500089918F3F11F00E94811081E0C639D80724
:10216000B9F7DF91CF910895B0E0A0E0EAEBF0E19C
:102170000C94E124EC01D62E062F10E0C8018A56FB
:102180009E4F7C01FC0180818F3F09F444C0F8948C
:10219000E82FE295EF70F0E091A18F7021E030E040
:1021A00001C0220F8A95EAF7892F822B81A382A191
:1021B0002095282322A378940E947C10E1E9F1E085
:1021C00031E0C12C21912F3F59F1A22FA295AF7080
:1021D000B0E090968C9190E02F7002C09595879515
:1021E0002A95E2F780FD1CC0832FC82A330F81E0B7
:1021F000E639F80739F7F70180818F3F11F00E9427
:10220000811061E0C11001C060E08D2D0E947E1040
:10221000C00FD11FC882CDB7DEB7E8E00C94FD2413
:1022200080E0E3CF0E94981084E0E8E0F3E0DF0173
:10223000982F1D929A95E9F7E4E0F3E0DF011D92F3
:102240008A95E9F784E00E9465110E946A1008955A
:10225000A4E0B0E0EEE2F1E10C94E62419821A82E7
:102260001B821C8210E0612FCE0101960E94B410E7
:102270001F5F1430C1F744E050E0BE016F5F7F4F35
:1022800084E093E00E941D2521E0009709F420E0FE
:10229000892B61F089819A81AB81BC818093040391
:1022A00090930503A0930603B093070344E068E00E
:1022B00073E084E093E00E946611182F0E946E1074
:1022C000812F2496E3E00C9402250895B0E0A0E06D
:1022D000ECE6F1E10C94E1246C017B01042FC22FA8
:1022E000222379F081E0809375020E945B1C909319
:1022F00074028093730280E0CDB7DEB7E8E00C94FF
:10230000FD24D0917502DD23B1F380917302909189
:1023100074020E94731C059770F310E0A801B601C7
:10232000C7010E941D25892B31F0A801B601C70104
:102330000E942A25CD2F109275028C2FDDCF0E948E
:102340002B1F0E949C0D0E94381F08950E943D1F64
:102350000E94AA0D0E94571F08950E94F41B0E941C
:10236000111F0E947F0D0E949F110E94A6110E94C2
:10237000920DFBCF9093B3018093B2010895AB010E
:1023800024E630E0BC0188E70E947E1D21E0892B15
:1023900009F020E0822F0895B0E0A0E0E2EDF1E145
:1023A0000C94E1246C017B0164E670E088E70E94F4
:1023B000E41C8C01E601EC0CFD1CCE15DF0561F47C
:1023C0000E94C61D81E00115110509F080E0CDB71E
:1023D000DEB7E8E00C94FD2417FDF2CFFE018491F6
:1023E00064E670E00E94501D8C012196E6CF0F93A9
:1023F0001F939B0104E610E0AC0160E488E70E94B3
:102400009F1D21E0892B09F020E0822F1F910F9161
:1024100008950E94DE1C089508950E940C120895EC
:10242000ECE0F3E080E092E0DF019C011D9221509E
:102430003040E1F7F0931105E09310058FEF9FEF27
:1024400090939C0280939B020895CF930E940C125C
:102450000E940D128093970280FD11C080E8809346
:1024600096020E9409126BE070E08FEE92E00E94EB
:10247000CC11811106C0C0E08C2FCF91089580E26D
:10248000EECF8091970265E070E081FD27C08AEE73
:1024900092E00E94CC11882371F36DE070E088ED2A
:1024A00092E00E94CC11C82F882329F30E94671C58
:1024B000605A75418F4F9F4F60930C0570930D05C7
:1024C00080930E0590930F050E94101281E0809377
:1024D0009A028093990210929802CECF85EE92E0F4
:1024E000D8CF2091960236E0839FC0011124629FCD
:1024F000800D911D1124811522E0920714F090E0C7
:1025000080E0845F9C4F909311058093100508959F
:10251000CF93DF9320911005309111052C5033405B
:10252000A901460F571F4130524020F060E072E091
:10253000621B730B40919B0250919C02FC01C901EC
:10254000620F731FC1E0D0E08617970738F05093F1
:102550009C0240939B02DF91CF9108952491DC016E
:10256000A45FBC4F3C91321781F02C939C01A5E0F5
:1025700036952795AA95E1F7DE0102C0AA0FBB1F89
:102580002A95E2F79D014A2B532B01963196DCCF19
:1025900080919A02811103C08091990208950E944E
:1025A000671C605A75418F4F9F4F60930C05709365
:1025B0000D0580930E0590930F058091990281116E
:1025C000EBCF62E070E086ED92E00E94CC118823B0
:1025D00019F381E080939902DFCFA6E0B0E0E3EF4A
:1025E000F2E10C94D724182F80919B0290919C02C9
:1025F000892B09F180919A028823E9F08091980251
:10260000811119C00E94C8121C821B8222242394AB
:10261000312C03E062EAE62E61E0F62E77E0672EC9
:1026200080919B0290919C02009729F0BC81BB2372
:1026300049F0111107C02696E2E10C94F3242B8196
:102640002F5F2B833B81C32ED12C210102C0440C70
:10265000551C3A95E2F7920128233923232B79F36D
:102660008091970280FD3EC08B818295880F807695
:1026700080930601960136952795369527952093E8
:102680000901815E8093070120930A0167E070E0F1
:1026900084E091E00E94BF11882369F2C60135E011
:1026A000880F991F3A95E1F72091970220FD28C0E5
:1026B00060E270E0845F9C4F0E94F711882309F468
:1026C000BACFC2018095909540909B0250909C0299
:1026D0004822592250929C0240929B024C814F5FAB
:1026E0004C839ECF8B81880F880F880F80930601C3
:1026F00010920901895F8093070100930A01C6CFF8
:10270000A6E7B2E0E0E21D92EA95E9F72EE931E0B2
:102710003E832D832AE9C22E21E0D22EAD81BE81D7
:102720006D91BE83AD83F60121916F01280F392F82
:10273000311DA901445F5C4F5A834983E62FF0E0C5
:10274000EA58FD4F30E020E0762C721A922C022ECF
:1027500001C0990C0A94EAF769817A81A12CDB0106
:10276000BD90BD01B920472D4A194770842E042E13
:10277000000C550BBB2D01C0BB0F8A94EAF78B2EC2
:102780005195419551094770552701C0B6944A9516
:10279000EAF78B28B0808B288082A39448E0A412AB
:1027A000DECF2F5F3F4F31962830310569F6AD817E
:1027B000BE81EA16FB0609F0B1CF60E270E086E761
:1027C00092E07ACF8091990290919A02911103C080
:1027D00091E089270895882369F062E070E084ED34
:1027E00092E00E94CC11811103C08091990208955A
:1027F0001092990280919902EBCF0E94580208959D
:102800000F931F9380919A02882311F160E080E07A
:102810000E9471120E94FD1380E00E94ED128091CF
:1028200099028823A9F00E94671C00910C05109161
:102830000D0520910E0530910F05601B710B820B69
:10284000930B6F3F7F4F8F4F9F4710F40E94E2130F
:102850001F910F9108958FE891E00197F1F700C063
:102860000000089581E00895CF93DF93D62F0E9452
:102870003214C82F882341F06AE070E089EAD11150
:1028800001C08AEA0E9467048C2FDF91CF910895DE
:1028900081E080939E0225982D9A24982C9A0E947C
:1028A0002B1420919E0240EA52E0FA018E2F841BE5
:1028B000821708F0089583B185FB882780F91C9959
:1028C00004C090E0892B8193F1CF92E0FBCFB0E080
:1028D000A0E0EDE6F4E10C94E124F12CE12C84E09D
:1028E000C82ED12C80919E02F81630F08E2DCDB7D7
:1028F000DEB7E8E00C94FD240F2D10E0E3B1E5FB1A
:10290000EE27E0F91C9940C080E08E2BD801A0563C
:10291000BD4FEC919E2F93709817A1F1EE0FEE0F23
:10292000E82BEC93EF70F0E0EE55FE4FE801C15656
:10293000DD4F80819881890F888320E084305CF0AE
:10294000F801E356FD4F80818F5F808360E08F2D1B
:102950000E94341421E088818D3F5CF4F801E35635
:10296000FD4F80818150808361E08F2D0E9434145F
:1029700021E08881082E000C990BB6010E94692481
:102980008883E22AF394AECF82E0BFCFCF93DF9368
:10299000EB0186319C4711F50E945A0B9D819923CA
:1029A00099F08A7A91E009F490E09093A102811164
:1029B00009C089E20E94411B0E940E0C80E0DF9159
:1029C000CF91089585E3F6CF8091A102811104C0D3
:1029D00089E20E94581BF0CF85E3FBCF81E0EFCF67
:1029E000CF93DF93EC01FB018581882309F4D2C0EA
:1029F0009E0130572332310508F0B2C00E94980C76
:102A00009093030380930203FE01E150F047E2320A
:102A1000F10520F4ED56FA4D0C94BE24809102038A
:102A200081608093020393C0809103038860809348
:102A300003038DC0809102038260F3CF8091020373
:102A40008460EFCF809102038860EBCF8091030315
:102A50008160EDCF809103038260E9CF8091020312
:102A60008061DFCF809102038062DBCF809102031F
:102A70008064D7CF0E94DE06809102038068D1CFA8
:102A8000809102038C60CDCF809103038360CFCF10
:102A9000809102038E7FC5CF80910303877FC7CFCC
:102AA000809102038D7FBDCF809102038B7FB9CFD0
:102AB00080910203877FB5CF809103038E7FB7CFCC
:102AC000809103038D7FB3CF809102038F7EA9CFC6
:102AD000809102038F7DA5CF809102038F7BA1CFD0
:102AE0000E94DE06809102038F779BCF80910203C4
:102AF000837F97CF809103038C7F99CF80910203CE
:102B000082FB992790F921E0922790FB82F990FBB4
:102B100083F987CF80910303982F909591708E7FD2
:102B2000892B90FB81F983CF90910203892F8F7BB2
:102B300096FF806476CF0E94DE0690910203892F73
:102B400097FB87F980586DCF81E00E94260D809118
:102B50000203909103030E949D0C0E94DE0680E018
:102B6000DF91CF91089580E0F0CF90910203892FFB
:102B70008F7E94FF806155CF90910203892F8E7FC5
:102B800090FF81604ECF90910303892F877F93FF41
:102B900088604DCF81E0E4CF282F35EB2303C001BF
:102BA000112497FF04C080589109892F08958058F7
:102BB0009F4FFBCF8091A80280FF0DC06091100154
:102BC00070E0660F771F6038710570F5611571054B
:102BD00069F1862F089581FF07C06091100184E09C
:102BE000689FB0011124EFCF6091100182FD0AC0EF
:102BF0008091A7028823A9F020910F016091100114
:102C0000821710F088E0ECCF869FC001112433E0DA
:102C1000880F991F3A95E1F7622F70E00E946924AE
:102C2000D2CF68E070E0D5CF8FE7089581E00895B6
:102C30008091A80280FF0CC060910C0170E0759536
:102C40006795759567956115710549F1862F08950A
:102C500081FF06C060910C0170E075956795F3CF18
:102C600060910C0182FD0BC09091A6029923A1F006
:102C700060910B0180910C01961738F0682F70E07D
:102C80006038710500F38FE70895899FC001112412
:102C900070E00E946924F4CF61E070E0D7CF81E05A
:102CA00008959091AB022091AC02922B2091AE023C
:102CB000922B2091AD02922B31F098E09093A702D5
:102CC00091E09093A6028D3C31F40E94DA15819533
:102CD0008093AC0208958E3C19F40E94DA15F8CF67
:102CE0008F3C31F40E94DA1581958093AB020895F0
:102CF000803D19F40E94DA15F8CF893D29F40E942D
:102D000018168093AD0208958A3D21F40E9418168A
:102D10008195F7CF8B3D31F40E94181681958093F1
:102D2000AE0208958C3D19F40E941816F8CF9FE268
:102D3000980F983070F4815D990B21E030E001C06C
:102D4000220F8A95EAF78091AA02822B8093AA0229
:102D500008958D3D31F48091A80281608093A8028E
:102D600008958E3D21F48091A8028260F7CF8F3DB7
:102D7000B9F78091A8028460F1CF4091AB028D3CFD
:102D800059F48091AC0287FF0DC01092AC02411142
:102D90000BC01092A70208C08E3C81F48091AC0257
:102DA00018169CF3442381F08091AD029091AE02FD
:102DB000892B09F05AC01092A60208958F3C49F45D
:102DC00047FFF0CF1092AB028091AC028111ECCFA3
:102DD000E0CF803D19F41416ACF3E4CF9091AD022E
:102DE000893D29F41916F4F61092AD02DBCF8A3D25
:102DF00019F497FFD7CFF8CF9091AE028B3D29F40D
:102E000097FFD0CF1092AE02CDCF8C3D19F419169A
:102E1000CCF3C8CF9FE2980F983090F4815D990B66
:102E200021E030E0B90102C0660F771F8A95E2F712
:102E3000CB0180959091AA0289238093AA02B2CFF8
:102E40008D3D31F48091A8028E7F8093A802AACF95
:102E50008E3D21F48091A8028D7FF7CF8F3D09F040
:102E6000A1CF8091A8028B7FF0CF08950E945B1CB8
:102E70009C019091AB028091AC02982B21F0309391
:102E8000A5022093A4029091AD028091AE02982BEE
:102E900021F03093A3022093A20289EA92E00E94DB
:102EA0003E1A089586E0E9EAF2E0DF011D928A9574
:102EB000E9F71092A7021092A6021092A8020895B4
:102EC000FC01828181110EC0838181110BC084813C
:102ED000811108C091E08581811101C090E0892FA6
:102EE0008170089581E0FCCFA6E0B0E0EAE7F7E169
:102EF0000C94E62486E0E9EAF2E0DE011196019006
:102F00000D928A95E1F71092AB021092AC021092EA
:102F1000AD021092AE028B819C81892B89F0809149
:102F2000A4029091A5020E94731CAC019091A7028B
:102F30009923C9F1809111018417150608F440C046
:102F40008D819E81892B91F08091A2029091A302A4
:102F50000E94731CAC019091A602992309F46AC0E7
:102F600080910D018417150608F472C0BE016F5FD1
:102F70007F4F89EA92E00E94891B811105C089EA8E
:102F800092E00E94601781110E94361786E0FE01D0
:102F90003196A9EAB2E001900D928A95E1F7269662
:102FA000E3E00C940225209112018AE0289F900111
:102FB00011242417350720F69F5F9093A70202C0C3
:102FC0009F3FD1F71B81112359F00E94DA159FEF23
:102FD00011160CF491E0899F802D11248093AB028F
:102FE0001C81112359F00E94DA159FEF11160CF481
:102FF00091E0899F802D11248093AC028091AB02D7
:10300000882309F49DCF1091AC02112309F498CFC5
:103010000E94CC15882351F08093AB02812F0E942F
:10302000CC15882329F08093AC028ACF81E0F4CFBD
:1030300081E0F9CF20910E018AE0289F90011124B0
:103040002417350708F092CF9F5F9093A60202C025
:103050009F3FD1F71D81112359F00E9418169FEF51
:1030600011160CF491E0899F802D11248093AD02FC
:103070001E81112359F00E9418169FEF11160CF4AF
:1030800091E0899F802D11248093AE028091AD0242
:10309000882309F46BCF1091AE02112309F466CF97
:1030A0000E94CC15882351F08093AD02812F0E949D
:1030B000CC15882329F08093AE0258CF81E0F4CF5D
:1030C00081E0F9CF0F931F93CF93DF93C42FD22FBB
:1030D000FC0185818823C9F04093B1020E945B1CEA
:1030E0009093B0028093AF0280E28C0F883040F45E
:1030F000C77081E001C0880FCA95EAF70E94880472
:10310000DF91CF911F910F9108951091B102141387
:1031100032C08091AF029091B0020E94731C883C33
:10312000910548F5C0E2CD0F1D17B9F080E2810F7F
:10313000883040F4177081E001C0880F1A95EAF7D3
:103140000E948F04C83048F481E09D2F977001C021
:10315000880F9A95EAF70E948804802F0E947F04C6
:10316000C83070F6D77081E001C0880FDA95EAF7B1
:103170000E948F04C5CF80E28C0F883008F6C7709C
:1031800081E001C0880FCA95EAF7F2CF0F93DB0107
:1031900088519C4787309105A0F5FC01EB54FA4D0E
:1031A0000C94BE2406E221EE41EE6AE17CE7CD01FB
:1031B0000E94621880E00F91089507E225EE45EE27
:1031C0006BE17CE7F4CF06E221EE40EE68E17CE7BC
:1031D000EECF07E225EE44EE69E17CE7E8CF06E2B8
:1031E00021EE42EE6CE17CE7E2CF07E225EE46EE0F
:1031F0006DE17CE7DCCF08E221E045EE6EE17CE7A3
:10320000D6CF15968C91882319F01092B102D3CFA6
:1032100081E0D1CF9C013A9521153F4478F499275C
:103220009C01245031092432310578F027523109AC
:1032300081E02E30310550F080E008958F3F9105F8
:1032400079F370F390E080E0EBCF81E008950E9485
:103250000A1908950E942719882381F0E091B80285
:10326000F0E0EE0FFF1FE754FD4F808191818F3F0B
:103270002FE7920719F001969183808308958F922A
:103280009F92AF92BF92CF92DF92EF92FF92CF9335
:10329000C090B902D090BA020D2C000CEE08FF08C5
:1032A0002091130130E0E9EBF2E081E090E032960A
:1032B000281739070CF0A7C06091EB027091EC025F
:1032C0008091ED029091EE020E94821C4B015C0104
:1032D000C091130189EC88169104A104B10414F182
:1032E0008091B80290E0019669E170E00E94692443
:1032F0008093B802880F991FFC01E754FD4F11829B
:1033000010828C2FC83108F087E18F5F8093130102
:103310000E94671C6093EB027093EC028093ED02B5
:103320009093EE0282E0C816D104E104F1040CF49B
:1033300076C0A0E6BAEEA70196010E94C4246B01F4
:103340007C0188ECC89F90011124032E000C440BD3
:10335000550B280D391D4A1D5B1DA5E0B0E00E94EC
:10336000C4249B01AC01C701B6010E947D24690100
:103370007A0181EFC816D104E104F1042CF080EF4A
:10338000C82ED12CE12CF12C6091B4027091B502C1
:103390008091B6029091B7020E94821C4B015C01A1
:1033A00085E688169104A104B10484F00E94671C8C
:1033B0006093B4027093B5028093B6029093B70203
:1033C0008091EF028093B302C092B202C091B30227
:1033D000A091B202AC1BBB0BA50194010E94CF24AB
:1033E00024E630E040E050E00E949F24C20FC093EA
:1033F000EF02CF91FF90EF90DF90CF90BF90AF9012
:103400009F908F90089540815181052E000C660B8E
:10341000770BC40ED51EE61EF71E019648CFC12CB1
:10342000D12C7601B1CF9093F5028093F4020895E8
:10343000E091F402F091F502309729F00190F081CB
:10344000E02D0995089580E00895E091F402F0914F
:10345000F502309721F00280F381E02D099508955F
:10346000E091F402F091F502309739F026E0DC01AA
:103470002C930480F581E02D09950895E091F402E4
:10348000F091F502309739F022E0DC012C930680B0
:10349000F781E02D09950895A3E0B0E0E2E5FAE1B7
:1034A0000C94E7242091F2023091F3022817390797
:1034B000A1F09093F3028093F202E091F402F09174
:1034C000F502309751F023E029839B838A8300849F
:1034D000F185E02DCE01019609952396E2E00C944A
:1034E0000325A3E0B0E0E7E7FAE10C94E72420919C
:1034F000F0023091F10228173907A1F09093F10200
:103500008093F002E091F402F091F502309751F0CF
:1035100024E029839B838A830084F185E02DCE01FA
:10352000019609952396E2E00C940325209102016F
:10353000309103012E5F3F4F80911E01882379F067
:103540008091020387FF0BC020910001309101019F
:103550002E5F3F4F9EE180E0915018F4089596E071
:10356000FACFF90141919F014423B1F38F5FF4CF6A
:10357000882321F190911E01992311F1909102036A
:1035800097FF1EC0E82FE695E695E695EE31B0F47C
:103590002091000130910101E20FF32FF11D2281F2
:1035A00030E0877041E050E002C0440F551F8A951B
:1035B000E2F72423352381E0232B91F480E0089562
:1035C0002091020130910301F9013296285F3F4FAB
:1035D0009191981721F0E217F307D1F7EFCF81E02F
:1035E00008959C01FC0132969FEF80E041914617BF
:1035F00051F09F3F19F4411101C0982F8F5F863021
:10360000A9F79F3F09F40895290F311D97FD3A95B9
:10361000F90162830895FC013296089621912613E0
:1036200003C0DF0111971C92E817F907B9F7089555
:10363000E62FE695E695E695EE3168F4E80FF92F6A
:10364000F11D677021E030E001C0220F6A95EAF7B2
:103650008281822B82830895E62FE695E695E69592
:10366000EE3170F4E80FF92FF11D677021E030E0C2
:1036700001C0220F6A95EAF72095828128232283D0
:103680000895682F80911E01882359F080910203CC
:1036900087FF07C080910001909101010E94181BD3
:1036A000089580910201909103010E94F11A0895FA
:1036B000682F80911E01882359F08091020387FFB3
:1036C00007C080910001909101010E942C1B089578
:1036D00080910201909103010E940B1B089580913B
:1036E0001E01882379F08091020387FF0BC0E091CF
:1036F0000001F091010132968EE1DF011D928A9561
:10370000E9F70895E0910201F0910301329686E015
:10371000F4CFDC01FB0111969C91119781819813E4
:1037200022C012968C911297882319F092818913E6
:103730001AC013968C911397882319F093818913DB
:1037400012C015968C911597882319F095818913CD
:103750000AC014969C91992321F081E024812913B9
:1037600003C080E001C081E08170089508950E9447
:10377000B61B0895811106C081E08093F6020E9475
:10378000B71B089582E0F9CF83E08093F6020E9490
:10379000B71B08950E94BA1B089581E08093F6023A
:1037A0000E94B71B08950E94CD1B089508950895A7
:1037B0000E94D71B0895089508950E94D61B08956E
:1037C000CF930E94DB1B0E9428110E94DC1BC0E0EB
:1037D0008C2F0E947110811105C0CF5FC430C1F7DA
:1037E000CF91089581E0FCCF85B7806885BF85B70C
:1037F000806885BF08951F921FB61F9211248F9372
:103800009F93AF93BF938091F702811113C0809172
:10381000120590911305A0911405B09115054196DC
:10382000A11DB11D8093120590931305A09314055B
:10383000B0931505BF91AF919F918F911F901FBEBF
:103840001F90189580911A05843031F10E945D0314
:103850001092F70288E190E020E40FB6F894A89562
:10386000809360000FBE2093600083B7817F8460E7
:1038700083BF83B7816083BF7894889583B78E7F39
:1038800083BF0FB6F894A8958091600088618093FB
:103890006000109260000FBE08950E94DE060E9434
:1038A0006403089582E084BD93E095BD9AEF97BDCF
:1038B00080936E0008952FB7F8948091120590912F
:1038C0001305A0911405B09115052FBF08952FB7CA
:1038D000F8946091120570911305809114059091F0
:1038E00015052FBF08959C014FB7F89480911205DC
:1038F00090911305A0911405B09115054FBF821B3F
:10390000930B0895CF92DF92EF92FF922FB7F89426
:10391000C0901205D0901305E0901405F0901505A5
:103920002FBFA7019601261B370B480B590BCA0165
:10393000B901FF90EF90DF90CF90089578941F9297
:103940001FB61F9211248F939F93AF93BF938091C3
:10395000120590911305A0911405B09115050196DB
:10396000A11DB11D8093120590931305A09314051A
:10397000B0931505BF91AF919F918F911F901FBE7E
:103980001F90189587E797E79093010880930008A8
:1039900088E19AE00FB6F894A895809360000FBE76
:1039A00090936000FFCF88E19AE00FB6F894A89555
:1039B000809360000FBE90936000FFCF1092B9001B
:1039C0008CE08093B8000895B0E0A0E0EAEEFCE15E
:1039D0000C94DE24B82EEB010E945B1C6C01EE24DB
:1039E000E394F12CC431D10560F025E0E22EF12CF6
:1039F000CF3FDC0731F0CE0164E170E00E94552436
:103A00007B0184EAA82E94E8992E1092BC00A09223
:103A1000BC000E945B1C8C018091BC0087FF0DC024
:103A20008091B900887F8830F9F08091B900887F53
:103A30008031D1F00FEF1FEF08C0C8010E94731C46
:103A4000E816F90648F70EEF1FEFCF3FDC07E9F263
:103A5000C6010E94731CC817D907B8F6C801CDB7B4
:103A6000DEB7EBE00C94FA24B092BB009092BC005D
:103A70000E945B1C8C018091BC0087FF0AC0809172
:103A8000B900887F883111F08034A1F610E000E0A1
:103A9000E5CFC8010E94731CE816F90660F7D3CF82
:103AA0000F931F93CF93DF93EB018093BB0084E8C8
:103AB0008093BC000E945B1C8C018091BC0087FF3E
:103AC00011C02091B900287F81E090E0283211F4E4
:103AD00090E080E0919581959109DF91CF911F91C0
:103AE0000F910895CF3FDC0741F3C8010E94731C7A
:103AF000C817D90710F78EEF9FEFEFCFB0E0A0E027
:103B0000E4E8FDE10C94E1246B018A017901B9013B
:103B10000E94E41CE6010C0D1D1DC017D10711F019
:103B200097FF08C024E92093BC00CDB7DEB7E8E0DA
:103B30000C94FD24B70189910E94501DEECFB0E096
:103B4000A0E0E5EAFDE10C94E124C62F6A017901C9
:103B5000B8010E94E41C97FD0CC0B8018C2F0E9494
:103B6000501DE601EC0CFD1CCE15DF0511F097FF92
:103B700008C024E92093BC00CDB7DEB7E8E00C9480
:103B8000FD24B80189910E94501DEECF84E98093F5
:103B9000BC0008958091000308959B01BA019091A3
:103BA0001A059430E9F48F708093E9009FEF8091BB
:103BB000E800915085FD06C085ED8A95F1F700007B
:103BC0009111F5CF8091E80085FF0AC050E040E0F8
:103BD000C9010E94CE1F8091E8008E778093E80093
:103BE000089543E050E0BC0182E00E94CD1D08959D
:103BF00046E050E0BC0182E00E94CD1D089540E205
:103C000050E0BC0182E00E94CD1D0895CF93DF9368
:103C1000EC0148E050E0BC0181E00E94CD1D88E04D
:103C2000FE01A8EFB2E001900D928A95E1F7DF91D5
:103C3000CF91089580911905811109C00E945E21DC
:103C40000E94BB218091E20084608093E20008958D
:103C50001092190508950E94CD1B089560911605D4
:103C600081E0611101C080E00E94C41B0895909121
:103C70001A0581E0943009F080E0609116050E94F9
:103C8000CA1B089542E061EC81E00E94DA2042E222
:103C900061EC82E00E94DA2090911A0581E0943074
:103CA00009F080E0609116050E94BA1B089580918A
:103CB0001C05833009F461C030F48130D1F18230C9
:103CC00009F49EC008958A3009F48AC08B3009F443
:103CD0006FC0893009F050C080911B05813209F016
:103CE0004BC080911F0590912005029708F044C0B9
:103CF0008091E800877F8093E8008091E80082FF50
:103D000037C09091F3008091F200029731F48091D6
:103D1000F100813011F0863021F48091F100809320
:103D200000038091E8008B778093E8000E940E21C9
:103D300023C080911B05813AF9F48091E800877FC8
:103D40008093E80080911F0590912005892B61F4F4
:103D500068E088EF92E070E00E941D208091E8000A
:103D60008B778093E800089560E090E080E0F3CFE7
:103D700080911A058111C1CF089580911B05813A68
:103D8000D9F780911F0590912005892BA9F7809183
:103D9000E800877F8093E8008091E80080FFFCCFF7
:103DA00080911E018093F1008091E8008E77BCCF56
:103DB00080911B05813201F780911F0590912005AC
:103DC000892BD1F68091E800877F8093E8000E94DC
:103DD0000E2180911D0580931E010E94DE0608952C
:103DE00080911B05813241F68091E800877F8093A6
:103DF000E8000E940E2180911E0580930103089522
:103E000080911B05813A09F0B7CF8091E800877F48
:103E10008093E8008091E80080FFFCCF809101034F
:103E2000C1CF84B7877F84BF0FB6F894A8958091DF
:103E30006000886180936000109260000FBE80E88F
:103E400090E00FB6F89480936100909361000FBEEC
:103E50000E94D31B08950E945E210E94BB21E2EEC6
:103E6000F0E080818460808378940E943A240895F1
:103E700084E191E00E94131A089580911A0585301B
:103E800031F480911A05853019F00E944D1C089577
:103E90000E94221C80911805882399F30E94E01B40
:103EA000882379F30E94B81F0E94DE06EACF0895A6
:103EB0009A0140912105509122050E94601F0895AA
:103EC000492F55274330510519F168F44130510508
:103ED00009F444C04230510509F445C090E080E047
:103EE00050E040E025C04132510549F142325105D0
:103EF000A9F784E490E04DE254E061157105C1F04A
:103F000086EB90E047E753E06130710589F0E6CF3A
:103F100099278130910581F0009729F00297F1F6F9
:103F2000EAEFF2E002C0E6E2F3E0849190E0AF0154
:103F3000F901518340830895EAE0F3E0F6CF89E088
:103F400090E04CE353E06115710591F389E090E056
:103F500045E553E06130710559F3C0CF82E190E04F
:103F600045E653E0E5CF8BE390E04AE253E0E0CF53
:103F700080E189BD82E189BD09B400FEFDCF809159
:103F8000D8008F7D8093D8008091E000826080937C
:103F9000E0008091E00081FDFCCF0895AF92BF92D8
:103FA000CF92DF92FF920F931F93CF93DF936C0119
:103FB000EB018A010E942D21F82E811123C00115E9
:103FC000110539F0F80180819181C81BD90BC80E09
:103FD000D91EB12CA12C2097A9F08091E80085FD75
:103FE00022C08091E8008E778093E80001151105CA
:103FF000A1F0F80180819181A80EB91EB182A08242
:1040000085E0F82E8F2DDF91CF911F910F91FF90BA
:10401000DF90CF90BF90AF9008950E942D2188230C
:10402000D1F2F82EEFCFF60181916F018093F1006C
:104030002197FFEFAF1ABF0ACECFFC018091210577
:104040009091220586179707A0F06115710529F454
:104050009091E8009E779093E80090E061157105DB
:1040600051F4911108C08091E80082FF34C080E0D3
:104070000895BC01F2CF80911A058823C1F18530E3
:10408000C1F18091E80083FD30C08091E80082FD9D
:10409000EACF8091E80080FFE1CF8091F30020918A
:1040A000F200382F6115710519F02830310558F0EC
:1040B00091E02830310509F090E02091E8002E775A
:1040C0002093E800CBCF81918093F100615071097A
:1040D0002F5F3F4FE7CF80911A05882341F085304D
:1040E00041F08091E80083FFBECF81E0089582E037
:1040F000089583E00895FC018091210590912205A7
:1041000086179707A0F06115710529F48091E800E2
:104110008E778093E80090E06115710551F491115C
:1041200008C08091E80082FF35C080E00895BC019E
:10413000F2CF80911A058823C9F18530C9F18091A9
:10414000E80083FD31C08091E80082FDEACF8091D4
:10415000E80080FFE1CF8091F3002091F200382F3A
:104160006115710519F02830310558F091E02830BB
:10417000310509F090E08091E8008E778093E800A7
:10418000CBCF84918093F1003196615071092F5FFC
:104190003F4FE6CF80911A05882341F0853041F0EA
:1041A0008091E80083FFBDCF81E0089582E008950B
:1041B00083E00895982F973028F08F708093E9005E
:1041C00081E008959093E900242F762F50E098170E
:1041D00031F07091EC002091ED005091F00021FD44
:1041E00002C09F5FE8CF3091EB003E7F3093EB0041
:1041F0003091ED003D7F3093ED003091EB00316068
:104200003093EB007093EC002093ED005093F0009E
:104210002091EE0027FDE5CF80E0089580911B05F9
:1042200087FF13C08091E80082FF06C08091E800FC
:104230008B778093E80004C080911A058111F2CF3A
:10424000089580911A058823D9F38091E80080FFB2
:10425000F8CF8091E8008E77ECCF2091E400309188
:10426000E50095E6A9012091EC00822F817020FFE6
:1042700006C08091E80080FF06C080E0089520918C
:10428000E80022FD1AC080911A05882389F0853044
:1042900089F08091EB0085FD0FC02091E400309102
:1042A000E50042175307F9F29150E1F684E00895D2
:1042B00082E0089583E0089581E008950E94CD2171
:1042C0000E94D521E0EEF0E0808181608083E8EDFE
:1042D000F0E080818F77808319BCA7EDB0E08C91EE
:1042E0008E7F8C9380818F7E808310921905089534
:1042F0000F931F93CF93DF930E94CD210E94D5216E
:10430000C8EDD0E088818F77888388818068888332
:1043100088818F7D888319BC10921A05109216052A
:10432000109218051092170500EE10E0F801808138
:104330008B7F808388818160888342E060E080E0B9
:104340000E94DA20E1EEF0E080818E7F8083E2EE51
:10435000F0E0808181608083808188608083F801C3
:1043600080818E7F8083888180618883DF91CF9177
:104370001F910F910895E8EDF0E080818F7E80839A
:10438000E7EDF0E080818160808384E082BF81E09E
:10439000809319050E9478210895E8EDF0E080816E
:1043A0008E7F80831092E20008951092DA001092BE
:1043B000E10008951F920F920FB60F9211242F93D0
:1043C0003F934F935F936F937F938F939F93AF939D
:1043D000BF93EF93FF938091E10082FF0BC0809128
:1043E000E20082FF07C08091E1008B7F8093E100B3
:1043F0000E9439248091DA0080FF19C08091D80092
:1044000080FF15C08091DA008E7F8093DA00809162
:10441000D90080FF96C080E189BD82E189BD09B4E1
:1044200000FEFDCF81E080931A050E941A1E809144
:10443000E10080FF19C08091E20080FF15C08091EB
:10444000E2008E7F8093E2008091E20080618093A1
:10445000E2008091D80080628093D80019BC85E08A
:1044600080931A050E942E1E8091E10084FF2BC0CC
:104470008091E20084FF27C080E189BD82E189BD8F
:1044800089B5982F917080FFFBCF8091D8008F7DE8
:104490008093D8008091E1008F7E8093E10080912D
:1044A000E2008F7E8093E2008091E2008160809341
:1044B000E20080911605882309F449C084E08093C6
:1044C0001A050E94371E8091E10083FF29C0809168
:1044D000E20083FF25C08091E100877F8093E100A7
:1044E00082E080931A05109216058091E1008E7F7C
:1044F0008093E1008091E2008E7F8093E2008091C2
:10450000E20080618093E20042E060E080E00E948F
:10451000DA208091F00088608093F0000E942B1ECA
:10452000FF91EF91BF91AF919F918F917F916F918B
:104530005F914F913F912F910F900FBE0F901F9061
:10454000189519BC10921A050E94281E70CF8091F0
:10455000E30087FD93E090931A05B3CF1F920F926B
:104560000FB60F9211242F933F934F935F936F9346
:104570007F938F939F93AF93BF93CF93DF93EF93EB
:10458000FF93D091E900DF708091EC00C82FC170DB
:1045900080FDC0E81092E9008091F000877F809351
:1045A000F00078940E94F2221092E9008091F000CD
:1045B00088608093F000CD2BCF70C093E900FF910D
:1045C000EF91DF91CF91BF91AF919F918F917F91AB
:1045D0006F915F914F913F912F910F900FBE0F9070
:1045E0001F901895AAE2B0E0E8EFF2E20C94E624FE
:1045F0008BE195E02091F100FC012193CF01F5E0E2
:1046000083329F07B9F70E94571E8091E80083FF0D
:104610001EC180911B0590911C059A3008F017C1AE
:10462000E92FF0E0E454FA4D0C94BE24803899F060
:10463000823809F00CC180911F058F70873008F017
:1046400006C18093E9008091EB0085FB882780F903
:104650001092E90006C080911705909118059111FC
:1046600082609091E800977F9093E8008093F1003A
:104670001092F1008091E8008E77E5C0882309F45C
:10468000D3C0823009F0E3C080911D058111D6C0EE
:1046900080911F058F702FEF280F263008F0D7C0AC
:1046A0008093E9002091EB0020FFC8C0933031F4E3
:1046B0008091EB0080628093EB00C0C09091EB0092
:1046C00090619093EB0021E030E001C0220F8A95C9
:1046D000EAF72093EA001092EA008091EB008860EC
:1046E000EACF8111B4C010911D051F778091E300BE
:1046F0008078812B8093E3008091E800877F80930E
:10470000E8000E940E218091E80080FFFCCF80919C
:10471000E30080688093E30082E0111183E08093DE
:104720001A0595C08058823008F091C080911D050F
:1047300090911E058C3D23E09207A1F583E08A83CA
:104740008AE289834FB7F894DE01139620E03EE0B9
:1047500051E2E32FF0E050935700E49120FF03C0B3
:10476000E295EF703F5FEF708E2F90E0EA30C0F07F
:10477000C7968D939D932F5F243159F74FBF80913A
:10478000E800877F8093E8006AE270E0CE0101963E
:104790000E941D208091E8008B778093E80057C02D
:1047A000C096E7CF60911F0570912005AE014F5F65
:1047B0005F4F0E94581FBC01892B09F448C090919B
:1047C000E800977F9093E80089819A810E947B207E
:1047D000E1CF8038E1F58091E800877F8093E800A1
:1047E000809116058093F10045CF811130C09091E2
:1047F0001D05923060F58091E800877F8093E80086
:10480000909316050E940E2180911605882311F0C1
:1048100084E005C08091E30087FDFACF81E08093BA
:104820001A050E94421E13C080911D05813079F443
:1048300081E0933009F080E0809318051092E90040
:104840008091E800877F8093E8000E940E2180918C
:10485000E80083FF0AC08091E800877F8093E8002A
:104860008091EB0080628093EB00AA96E3E00C94C9
:1048700002250895CF9380911A058823A1F0C09155
:10488000E900CF709091EC00892F817090FD80E855
:10489000C82B1092E9008091E80083FD0E94F2226B
:1048A000CF70C093E900CF910895AA1BBB1B51E1C3
:1048B00007C0AA1FBB1FA617B70710F0A61BB70B90
:1048C000881F991F5A95A9F780959095BC01CD0135
:1048D000089597FB072E16F4009407D077FD09D0B2
:1048E0000E94552407FC05D03EF4909581959F4F7A
:1048F0000895709561957F4F0895A1E21A2EAA1B25
:10490000BB1BFD010DC0AA1FBB1FEE1FFF1FA2177F
:10491000B307E407F50720F0A21BB30BE40BF50B7C
:10492000661F771F881F991F1A9469F76095709505
:10493000809590959B01AC01BD01CF010895052E96
:1049400097FB1EF400940E94B62457FD07D00E94E6
:104950007D2407FC03D04EF40C94B624509540956A
:10496000309521953F4F4F4F5F4F0895909580951B
:10497000709561957F4F8F4F9F4F0895EE0FFF1FEA
:104980000590F491E02D09940E940E25A59F900DAD
:10499000B49F900DA49F800D911D11240895B7FF21
:1049A0000C94C4240E94C424821B930B08952F925C
:1049B0003F924F925F926F927F928F929F92AF92AF
:1049C000BF92CF92DF92EF92FF920F931F93CF93FC
:1049D000DF93CDB7DEB7CA1BDB0B0FB6F894DEBF93
:1049E0000FBECDBF09942A88398848885F846E84B9
:1049F0007D848C849B84AA84B984C884DF80EE8003
:104A0000FD800C811B81AA81B981CE0FD11D0FB60B
:104A1000F894DEBF0FBECDBFED010895A29FB00197
:104A2000B39FC001A39F700D811D1124911DB29FE2
:104A3000700D811D1124911D0895FB01DC0104C03E
:104A40008D910190801921F441505040C8F7881B86
:104A5000990B0895FB01DC0102C001900D924150B9
:104A60005040D8F70895F999FECF92BD81BDF89ACC
:104A7000992780B50895A8E1B0E042E050E00C9499
:104A80007725DC01A40FB51F4150504048F0CB0101
:104A9000840F951F2E910E94522541505040D0F70F
:104AA0000895262FF999FECF92BD81BDF89A0197FE
:104AB00000B4021639F01FBA20BD0FB6F894FA9A66
:104AC000F99A0FBE08950396272F0E9452250E943F
:104AD0005125252F0E945225242F0C9452250196F2
:104AE000272F0E9452250C945125DC01CB01FC019B
:104AF000F999FECF06C0F2BDE1BDF89A319600B437
:104B00000D9241505040B8F70895F894FFCFD70464
:104B1000D704270527058C05A80506050605AD055C
:104B20001E062D062D064815BC1550151A151E1506
:104B300054152215581564152E15B515321568151E
:104B400036156C1594153A1570159B15401576158C
:104B50007E1526155C152A15601544157A158A15DB
:104B6000A415B31514154C15C315E318E918D2187C
:104B7000DD18EF18F518FB1816233E2327243E23D3
:0C4B80002724712392232724E923F52326
:104B8C00360256020021007F220003280850011E25
:104B9C000A140101CA1D061EFF1DF81DF11D01E2BC
:104BAC0000E900EA00B500B600B700CD008301CCE7
:104BBC00008A01920194012102230224022502267B
:104BCC000227022A02B300B4006F0070009F01CBD1
:104BDC00019F02A002818283E200E900EA00B50095
:104BEC00B600B700CD008301CC008A01920194017C
:104BFC002102230224022502260227022A02B300E4
:104C0C00B4006F0070009F01CB019F02A002818253
:104C1C0083F4F5F6F76631333236000810181810A5
:104C2C00080000FF0100010000FFFF00000100016F
:024C3C00FF0077
:00000001FF
