:100000000C94B4020C94D1020C94D1020C94D10241
:100010000C94D1020C94D1020C94D1020C94D10214
:100020000C94D1020C94D1020C94E8270C94BC28B7
:100030000C9478210C94D1020C94D1020C94D1022E
:100040000C94D1020C94D1020C94D1020C94D102E4
:100050000C94D1020C941B220C94D1020C94D1026A
:100060000C94D1020C94D1020C94D1020C94D102C4
:100070000C94D1020C94D1020C94D1020C94D102B4
:100080000C94D1020C94D1020C94D1020C94D102A4
:100090000C94D1020C94D1020C94D1020C94D10294
:1000A0000C94D1020C94D1020C94D10200000000F7
:1000B0000000000000000000000000000000000040
:1000C0000000000000000000000000000000000030
:1000D0000000000000000000000000000000000020
:1000E0000000000000000000000000000000000010
:1000F0000000000000000000000000000000000000
:1001000000000000000000000000000000000000EF
:1001100000000000000000000000000000000000DF
:1001200000000000000000000000000000000000CF
:1001300000000000000000000000000000000000BF
:1001400000000000000000000000000000000000AF
:10015000000000000000007800700870000000F847
:100160002838003828100038283E00F8005800F8D9
:10017000283800000000000000000000000000001F
:1001800000000000000000000000000000E0E0E0CF
:10019000E0E0E0E0E00000000000000000000000FF
:1001A000000000000000000000000000000000004F
:1001B000000000000000000000000000000000003F
:1001C000000000000000000000000000000000909F
:1001D000B8E848007CC080C0FC0000FCDA8A7200ED
:1001E00000F80090B8E8480040E8A8A8F83000F807
:1001F000888888700000F800F80000F88888887007
:1002000000000000000000000000000080C1E3F7D3
:10021000FFFFF7F3E1C00000000000000000000055
:1002200000000000000000000000000000000000CE
:1002300000000000000000000000000000000000BE
:1002400000000000000000000000000000000000AE
:10025000000000000000000000000000000000009E
:100260000002000000000000000000000000000785
:100270000000000000000300020000070000000072
:10028000000000000000000000000000010F1F3F00
:100290003F3F1F1F0F030000000000000000000090
:1002A000000000000000000000000000A900AA00FB
:1002B0005F0060006100AE0000005C005D005E0059
:1002C000AB00000059005A005B00AC000000620067
:1002D0004C005800B200A80000AE00AF00DA028166
:1002E000FFD9F1DB20A4A62EAF00A0C0D30000A14F
:1002F000C8D30000AED580A81F408D142000000098
:100300000000000000002A2B280000000000000070
:1003100000000000000000000029000000002C1E6A
:100320003420212224342627252E362D3738271E27
:100330001F202122232425263333362E37381F044D
:1003400005060708090A0B0C0D0E0F1011121314E5
:1003500015161718191A1B1C1D2F3130232D3504A3
:1003600005060708090A0B0C0D0E0F1011121314C5
:1003700015161718191A1B1C1D2F3130354C00008B
:10038000000000000000000000000000000000006D
:10039000000000000000000000000000000000005D
:1003A00000007E0F00D4FFFFFFC7000000780E039F
:1003B000640069006C0070006100640000001A03B2
:1003C000440069006C006C006F006E002000480063
:1003D000690063006B007300000004030904090254
:1003E0005B00030100A0FA09040000010301010001
:1003F00009211101000122440007058103080001C1
:10040000090401000203000000092111010001227A
:1004100022000705820320000107050303200001D5
:10042000090402000103000000092111010001225A
:10043000B60007058403200001120100020000003D
:1004400008444400000001010200010660FF096148
:10045000A1010962150026FF009520750881020997
:1004600063150026FF00952075089102C00501095B
:1004700002A10185020901A1000509190129081538
:100480000025019508750181020501093009311522
:1004900081257F95027508810609381581257F958C
:1004A0000175088106050C0A38021581257F950122
:1004B00075088106C0C005010980A10185031901E5
:1004C0002AB700150126B700950175108100C005F7
:1004D0000C0901A101850419012AA002150126A019
:1004E00002950175108100C005010906A10185066C
:1004F000050719E029E71500250195087501810216
:100500000507190029EF1500250195F075018102F5
:1005100005081901290595057501910295017503D5
:100520009101C005010906A101050719E029E71598
:100530000025019508750181029501750881010565
:1005400007190029FF150026FF0095067508810090
:100550000508190129051500250195057501910268
:10056000950175039101C00011241FBECFEFDAE0A1
:10057000DEBFCDBF11E0A0E0B1E0E0EEF7E502C0E4
:1005800005900D92A43CB107D9F725E0A4ECB1E0A9
:1005900001C01D92A333B207E1F70E946C120C94C4
:1005A0009A2B0C94000060E072E08CEA90E00E94CC
:1005B000471380E00895811112C0643080F4453003
:1005C00070F4E42FF0E085E0689FE00DF11D112448
:1005D000EE0FFF1FE055FD4F85919491089581E046
:1005E00090E00895862B59F4E1E04E27E42FF0E0E7
:1005F000EE0FFF1FE455FD4F85919491089581E022
:1006000090E0089581E008950E940203089581E03A
:1006100008950E94020308950E9409030895089511
:100620000E940F030895A6E0B0E0E9E1F3E00C9426
:10063000FB2A49835A839E833091CB0189819A8119
:1006400031111AC03E81332399F0222389F00E9490
:100650009F08182F682F89819A810E946C086981F0
:100660007A81812F0E94DF0F2696E3E00C94172BEE
:100670000E948608182FF3CF0E949F0869817A8113
:10068000F1CFFC01262F40815181628173818481E9
:1006900095810E9413030895CF93DF93EC0161E0ED
:1006A0000E944103BE010E940403DF91CF9108958F
:1006B000CF93DF93EC0160E00E944103BE010E94F2
:1006C0001003DF91CF91089581E008950E946403A3
:1006D0000895CF93C82F0E9468078C2F0E9466034D
:1006E0002FEF84E39CE0215080409040E1F700C070
:1006F0000000CF91089581E00E9469030E943F228B
:10070000089580E00E9469030E94502208950F938B
:100710001F93CF93DF938C0161E00E944103EC01B2
:10072000F8018581882319F0CE010E94A71EB80127
:10073000CE010E94871D811106C080E0DF91CF911C
:100740001F910F910895B801CE010E940C038823D8
:10075000A1F3B801CE010E94941C882371F3B80163
:10076000CE010E94FB17882341F3B801CE010E94FD
:10077000D117882311F3B801CE010E94D81C882319
:10078000E1F2F8018581882361F0C330FCE7DF07DF
:10079000E9F058F4C115ECE7DE07A9F0C130DC47F9
:1007A000B9F0C8010E940703C9CFCB358CE7D80741
:1007B000A9F0CC35ECE7DE0771F0CA35DC4789F7E4
:1007C0000E94080DEECF0E947B03B7CF0E94100D50
:1007D0000E948103B2CF0E94FE0CE3CF0E940C0D59
:1007E000E0CF0E9455210E941A040E94A11408958E
:1007F0000E941E040E945A210895089581E00895E0
:100800000895CF93DF93D82F0E94FE03C82F88232B
:1008100019F08D2F0E9400048C2FDF91CF91089545
:100820000895CF93C82F0E94FD038C2F0E940104CE
:10083000CF91089580E00E94110408950E94951FB1
:100840000E9411040895CF930E94951FC82F809194
:10085000C6018C1779F0C093C6010E94E421609311
:10086000C7017093C8018093C9019093CA018C2F6E
:100870000E941104CF910895ADE0B0E0E2E4F4E00D
:100880000C94FC2A488759876A877B878C879D87C9
:1008900091110E940E0C1F8286E0FE013896DE0147
:1008A000119601900D928A95E1F78D8181110DC00D
:1008B00029813A814B815C816D817E818F810E948B
:1008C000580B2D96E2E00C94182BCE0101960E9455
:1008D0004C038111EDCFF5CFFC012481213021F4AF
:1008E000808191810E94CC080895662329F00E949E
:1008F0005C190E94411A08950E94C819FACFCF933B
:10090000C82F882399F08CEF8C0F813A88F48C2FB4
:100910000E943520882329F08C2F0E94D5200E9428
:10092000A20C8C2F0E94BE200E94A20CCF91089591
:1009300080E28C0F883048F4C77081E001C0880FD6
:10094000CA95EAF70E94F10BEFCFEBE5EC0FE3302D
:1009500040F4F0E0E85AFE4F808190E00E94C91F09
:10096000E5CFE8E5EC0FEB3150F4F0E0EE0FFF1FC0
:10097000EE5DFE4F808191810E94EE1FD7CF83E311
:100980008C0F833198F661E08C2F0E947504CECFD6
:10099000882381F19CEF980F913A28F40E94D5208A
:1009A0000E94A20C089590E2980F983050F487703E
:1009B00091E001C0990F8A95EAF7892F0E94F70B01
:1009C000EFCF9BE5980F933028F490E080E00E94F1
:1009D000C91F089598E5980F9B3128F490E080E0B6
:1009E0000E94EE1F089593E3980F933118F460E08E
:1009F0000E94750408951F93CF93DF93182FEB0186
:100A00000E947F04209739F4812F0E94C804DF914F
:100A1000CF911F9108958FE99FE00197F1F700C0F2
:100A200000002197EFCF70E060E0893311F460E5BA
:100A300070E00E94FB040895882321F00E94F10BCE
:100A40000E94A20C0895882321F00E94F70B0E94B7
:100A5000A20C0895B0E0A0E0E0E3F5E00C94F52AE4
:100A60006C01D62FC72FFC011581068102950F70EE
:100A70000E94E70BE82E8823F9F0E12E1123E1F024
:100A80008C2F807F803461F080E28D0F883008F1F8
:100A90008C2F807E803221F4D230D8F00023C9F030
:100AA0008091130382FF15C082E00E94D20C0E9445
:100AB000E70B91E0E82EE926BC2EB2949FE0B92224
:100AC000FBE0FB15B8F1EB2DF0E0E456F44D0C948F
:100AD000CC2AE12CF1CF0C2F0F70C07F11F00295C2
:100AE000007F112399F0002359F080E28D0F8830A8
:100AF00010F0D11107C0802F0E94F10B0E94A20CB0
:100B00008D2F5AC0802F0E94010CF8CF8D2F0E948C
:100B1000C804002379F080E28D0F883010F0D111E5
:100B200004C0802F0E94F70B03C0802F0E94070C87
:100B30000E94A20CEB2DE850FF0B349720F40E948A
:100B4000951F0E941104EE2089F00E94E30B80FDA6
:100B50000DC0F60115820E94DD0B0E94E007C60160
:100B60000E942F070E94DD0B0E94EC07CDB7DEB775
:100B7000E9E00C94112B2C2F2F70F22EC07FC03285
:100B800019F0F29480EFF822DD2341F0D130D1F159
:100B9000112309F444C00023F1F0B2CF8091130374
:100BA00082FD15C0112359F0FF2029F08F2D0E94DE
:100BB000F10B0E94A20C80E00E947F04BBCF80E07A
:100BC0000E94C804FF2009F4B5CF8F2DABCF1123AD
:100BD00069F0011104C08F2D0E941C05ABCF0130BC
:100BE00009F0A8CF8F2D0E94250CA4CF0111A2CF10
:100BF0008F2D0E9423058F2D0E94310C8F2D0E9476
:100C0000150C98CF112321F0063008F093CFE3CFD5
:100C1000053008F08FCF8F2D0E9423058BCF002346
:100C2000D1F3D93349F43FEF87EE93E03150804060
:100C30009040E1F700C000008D2F0E94C8047ACFD9
:100C40008C2F86958695837069F0813009F072CF7C
:100C50008D2F9C2F9370111102C080E090E00E94B4
:100C6000EE1F68CF8D2F9C2F9370111102C080E072
:100C700090E00E94C91F5ECF612F8D2F0E947504E6
:100C800059CF8C2F837079F5111154CF4D2F429588
:100C900046954770440F440F8D2F8F70042E01C06E
:100CA000880F0A94EAF72D2F2071D4FF07C02FE098
:100CB00030E001C0220F4A95EAF72095C695C69507
:100CC000C370822BC23049F058F4C13019F00E9431
:100CD000BC0730CF0E94B6072DCF0E94C2072ACF93
:100CE0000E94B30727CF8695112311F08C2F8170B6
:100CF000882309F41FCF4D2F429546954770440F26
:100D0000440F8D2F8F70042E01C0880F0A94EAF7CC
:100D10002D2F2071D4FF07C02FE030E001C0220F3B
:100D20004A95EAF72095C695C695C370822BC230C6
:100D300049F058F4C13019F00E940B08FBCE0E9414
:100D40000508F8CE0E941108F5CE0E94CE07F2CE1B
:100D5000CF70112329F08C2F0E94E0078D2F3CCFFC
:100D60008D2F0E9423058C2F0E94EC07E3CED23FEB
:100D700041F160F4D03FB9F0D13F81F0112309F483
:100D800046C00111BDCE8C2F8F711FC0D33F01F122
:100D9000D43FA1F78091130382FD24C08C2F8F7163
:100DA000112311F312C0112341F0053008F0C2CE17
:100DB0008C2F8F710E94F907BDCE063008F0BACE95
:100DC000F7CF8C2F8F711111CFCF0E94E007B2CED9
:100DD000112329F08C2F8F710E94D707ABCE0E9470
:100DE000D307A8CE112349F0CF718C2F0E94E007C2
:100DF00063E08C2F0E94B40C9DCE81E00E94D20C47
:100E0000023008F497CE82E00E94D20C93CE0023E9
:100E100059F0D93309F010CFEFEFF7EE23E0E150AE
:100E2000F0402040E1F706CF8C2F8F719DCF0F93BC
:100E30001F93CF93DF93EC01688179818D810E94AC
:100E4000D7088C010E9417080E94B207B801CE0192
:100E50000E942A05DF91CF911F910F910895CF93A2
:100E6000DF93EC018C81882399F0CE010E948703E7
:100E7000811111C00E94E70B882351F08D818823D6
:100E800039F08091130382FF03C082E00E94D20CEC
:100E9000DF91CF910895CE010E941707CE010E94E5
:100EA0005803F6CF90E080E00E94C91F90E080E0F8
:100EB0000E94EE1F0E940E0C0E94A20C0E945D1A5E
:100EC0000E94411A08950E94EC200E945207089542
:100ED0000E94FE0B0E946307089592959F709630C2
:100EE00091F058F4925F9F70923058F4803F19F05F
:100EF00030F4883E30F481E008959A5FF4CF843F67
:100F0000D1F380E00895883EB0F3813FD1F7F3CF6D
:100F1000FC012481222339F0808191810E94CC0838
:100F20000E946D07089580E00895A6E0B0E0EBE927
:100F3000F7E00C94FC2A2696E2E00C94182BA7E02C
:100F4000B0E0E5EAF7E00C94FC2A2796E2E00C9486
:100F5000182B08950E94A90708950E94AA0780935C
:100F6000D901089508950E94AD0708959091D9017F
:100F7000892B0E94AD0708959091D90189230E9481
:100F8000AD0708959091D90189270E94AD07089572
:100F90000E94A90708950E94C80708950E94CB07E0
:100FA0008093D801089580E00E94CE07089591E0D3
:100FB00001C0990F8A95EAF7892F0E94CE070895FC
:100FC00021E030E001C0220F8A95EAF78091D80134
:100FD000822B0E94CE07089521E030E001C0220F4D
:100FE0008A95EAF720958091D80182230E94CE0746
:100FF000089521E030E001C0220F8A95EAF7809140
:10100000D80182270E94CE0708959091D801892B9C
:101010000E94CE0708959091D80189230E94CE079F
:1010200008959091D80189270E94CE0708950895C8
:10103000262F277091E001C0990F2A95EAF723E047
:10104000769567952A95E1F7FB01EE0FFF1FE60FF6
:10105000F71FE40FF51F50E040E0682F70E081912A
:10106000DF0111979B01042E02C0369527950A9443
:10107000E2F7217021952827292328272C934F5FF9
:101080005F4F4330510559F70895A82FA77023E00B
:10109000969587952A95E1F7FC01EE0FFF1FE80F63
:1010A000F91FE60FF71F50E040E080E0219130E0AB
:1010B0000A2E02C0369527950A94E2F7217033274D
:1010C000042E01C0220F0A94EAF7822B4F5F5F4F74
:1010D0004330510559F70895282F862F943070F426
:1010E000253058F4622F70E025E0929F600D711D4D
:1010F00011244FEC51E00E94180808959C5F923033
:10110000E0F7622F70E04CEC51E0F5CF292F9430DE
:1011100068F4853090F490E06FEC71E035E0239F47
:10112000800D911D11240E94450808952C5F2230E6
:1011300020F46CEC71E090E0F6CF80E00895CF925F
:10114000DF92FF920F931F93CF93DF936C01009177
:10115000D8018091D901082BC3E0D0E010E0FC2E2B
:10116000C8010C2E02C0959587950A94E2F780FD80
:101170000CC02197A0F7F12C8F2DDF91CF911F91FB
:101180000F91FF90DF90CF900895B6018C2F0E94B1
:10119000F80F019771F3F0CFCF93DF93EC010E942A
:1011A0009F08BE010E94F80FDF91CF9108951F9311
:1011B000CF93DF93EB019091CB01992339F0CB01D1
:1011C0000E94CC08DF91CF911F910895882369F088
:1011D000CB010E949F08182F682FCE010E946C0837
:1011E000BE01812F0E94F80FEDCFCB010E9486082F
:1011F000182FF6CFE1E0F0E0DF0102C0AA0FBB1F1D
:101200006A95E2F7BD01DF0102C0AA0FBB1F4A9534
:10121000E2F76A2B01C0EE0F2A95EAF7962F982382
:10122000961302C08E2B0895E0958E230895242FE7
:10123000462F682F8091D8010E94FA080E94CE079D
:1012400008951F93CF93DF93C091DA0117E0809147
:10125000DB018C1304C0DF91CF911F910895D0E082
:101260001C9FF0011D9FF00D1124E452FE4F2081C0
:101270003181428153816481758186810E949F07FB
:101280002196C770E4CF209114023091150240914D
:101290001602509117026091180270911902809104
:1012A0001A020E949F070895CF93DF9380911A023C
:1012B000807F09F04DC080911902882309F448C04D
:1012C000E091DA015091DB01C0911502D091140236
:1012D000609116027091170247E05E17C9F18E2FD8
:1012E00090E0E49FF0011124E452FE4F2481222378
:1012F00091F1489FF001499FF00D1124DF01A452A4
:10130000BE4F11962C9111972C1325C02C912D13A3
:1013100022C015962C91159721111DC012962D9162
:101320003C91261B370B283C3105A8F480911A020A
:101330008F70806180931A02EE51FE4F80818F7012
:101340008061808384E192E00E942F070E9421093E
:10135000DF91CF910895FC013196E770BECF482F01
:101360002091DA019091DB0157E0291302C080E05F
:10137000089530E0529FF001539FF00D1124E45284
:10138000FE4F8181681306C08081481303C08581A8
:101390008111EECF2F5F3F4F2770E7CFA4E1B0E080
:1013A000E4EDF9E00C94F22A8C0186E0F801DE010C
:1013B0001F9601900D928A95E1F7F8018481E580EE
:1013C00094E1A92E92E0B92E9091180291111FC0BC
:1013D0008823D1F0EE20A9F0C8010E948807F82EDA
:1013E000882379F087E0F801D50101900D928A9564
:1013F000E1F7C5010E946C040E9454090E94430950
:101400005FC0C8010E942F07FF24F39459C0C08019
:10141000D18082809380F090190220911602309141
:101420001702A401421B530BFF2009F4F9C0483CEA
:10143000510508F0A7C0882309F442C09091150215
:1014400080911A02282F207F09F05CC09D1116C0E0
:1014500090911402C91212C0E1104EC08F708061C9
:1014600080931A020E94430984E192E00E942F07B0
:1014700080911A02F8018683F12C22C0E1103CC051
:101480006D2D8C2D0E94AF096D2D8C2D0E94AF0902
:10149000E82E8111F1CFCF86D88A8F8598890E9456
:1014A000CC08292F22952F70243078F49F70223099
:1014B000A8F09923B9F0F8019681907F99F4FE2C59
:1014C0008F2D6496ECE00C940E2B2A5F2F70223047
:1014D00068F0C8010E942F07EF2CF1CF992311F07B
:1014E000882369F3805E883050F3F3CF803F38F370
:1014F000815F833070F7E3CF80911A02816080931F
:101500001A02BACF9D1113C090911402C9120FC0D4
:10151000E1100DC08683C8010E942F0787E0F80103
:10152000A4E1B2E001900D928A95E1F767CFC8017E
:101530000E948807882309F464CFEE2009F461CF64
:1015400080911A02803288F02091140230911502A5
:10155000398728879B868A86909118029C871D86EA
:101560008E87CE0108960E942F0787E0F801A4E13C
:10157000B2E001900D928A95E1F70E9454090E9411
:10158000430942CF90911A02292F207FA1F4682DA0
:101590009A8A898AA6017A899E2D0E94950784E1FC
:1015A00092E00E942F0787E0F50111928A95E9F7F2
:1015B0000E94430961CF882309F482CF80911502EC
:1015C0008D1110C080911402C8120CC0E1100AC025
:1015D0009683C8010E942F0787E0F50111928A9532
:1015E000E9F76ECFC8010E948807882309F409CF64
:1015F000EE2009F406CF80911A02803208F4B5CFAC
:1016000020911402309115023A8329839C828B82A7
:10161000909118029D831E828F83CE010196A3CFE5
:10162000483C5105B8F5882309F4EECEFE2CEE2097
:1016300009F4E7CE809115028D111EC0809114022D
:10164000C8121AC080911A0280FD0DC0982F907F99
:1016500051F08683903F09F45ECF982F907F905F82
:101660008F70892B57CF87E0F801A4E1B2E0019099
:101670000D928A95E1F724CFC8010E948807811155
:1016800074CF80911A02816080931A02C8010E946F
:101690002F0716CF682D9A8A898AA6017A899E2DEE
:1016A0000E94950787E0F50111928A95E9F7A6CE89
:1016B000AEE0B0E0EEE5FBE00C94FB2A288739872A
:1016C0004A875B876C877D878E87CE0108960E944C
:1016D000CE098823B1F06C85662341F028853985D1
:1016E0004A855B857D858E850E949F0717E08091E6
:1016F000DA019091DB0189133DC02E96E3E00C9452
:10170000172B87E0FE013896DE01119601900D92AD
:101710008A95E1F78C85882349F32091DB0130E03D
:10172000C9010196877099274091DA014817190677
:1017300099F097E0929FD001939FB00D1124A4528D
:10174000BE4FFE01319601900D929A95E1F780937C
:10175000DB010E942109CACF0E9468071092DB01B9
:101760001092DA0187E0E4E1F2E0DF011D928A9550
:10177000E9F7BCCF819FC001112484529E4F0E9483
:10178000CE09882309F4B9CFE091DA011E9FF00158
:101790001124E452FE4F20813181428153816481C2
:1017A000758186810E949F078091DA0190E0019601
:1017B000877099278093DA019ACF809143028695AA
:1017C000869586950895809143028770089590913B
:1017D0004302977081E009F480E0089580916F02E0
:1017E000089590916F02892B80936F0208958095E0
:1017F00090916F02982390936F02089510926F0258
:10180000089590916E02892B80936E0208958095C1
:1018100090916E02982390936E02089510926E023A
:10182000089508950E94110C089590914402292F63
:10183000282331F080958923809344020E94120C62
:10184000089508950E94210C089590914502292F32
:101850002823281729F0982B909345020E94220CE8
:10186000089590914502292F282331F080958923EE
:10187000809345020E94220C08958091450288239E
:1018800029F01092450280E00E94220C0895CF9327
:10189000C0916F0280916E02C82B8091450288230F
:1018A00031F0C82B0E94132081110E943D0C8C2F17
:1018B000CF910895CF93DF93C0910201D09103019E
:1018C0000E94470C8883C0910201D091030148E037
:1018D00050E06BE372E0CE010E94322B892B59F06D
:1018E00088E0FE01ABE3B2E001900D928A95E1F74A
:1018F000CE010E94A21FDF91CF910895CF93DF9375
:10190000C0910001D09101010E94470C8983C091D0
:101910000001D091010140E250E06BE172E0CE01A4
:101920000E94322B892B59F080E2FE01ABE1B2E03C
:1019300001900D928A95E1F7CE010E94AD1FDF91D3
:10194000CF91089580912101882339F0809112036D
:1019500087FF03C00E947E0C08950E945A0C0895D0
:1019600008950E94B00C08959091130392FF11C046
:1019700098E0899F90011124622B609343020E949A
:10198000E007809143028695869586950E94B10C6A
:1019900008950E94E00708951092430280E00E949B
:1019A000B10C08959091430280958923809343025E
:1019B000282F277069F4891759F09091130392FF2B
:1019C00007C08695869586950E94EC070E94CC0CF0
:1019D00008959091130392FB222720F9281769F0AC
:1019E00080FB92F99093130380911203909113035B
:1019F0000E94320D82E00E94D20C08958091130360
:101A000082FB882780F991E089270E94E90C0895DC
:101A100081E00E94E90C089580E00E94E90C08959D
:101A20006FEF7FEF90E080E00E94842B089590E0BC
:101A300080E00E94502B863E9E4F19F40E94211D8B
:101A4000089580E0089582E090E00E94482B089578
:101A500083E090E00E94482B089584E090E00E948B
:101A6000502B0895BC0184E090E00E94842B0895DF
:101A7000AB01BC018FE090E00E94782B0895AB0190
:101A8000BC0183E190E00E94782B089560E070E053
:101A9000CB010E943F0D089560E070E0CB010E94F1
:101AA000380D0E94460D0895A8E0B0E0EAE5FDE09B
:101AB0000C94FC2A66EE7EEF90E080E00E94842B7E
:101AC00060E082E090E00E94662B81E08093D90183
:101AD00061E083E090E00E94662B60E074E184E0C6
:101AE00090E00E94842B60E086E090E00E94662BEC
:101AF0006FEF87E090E00E94662B40E050E0BA0173
:101B000088E090E00E94782B60E084E290E00E9400
:101B1000662B60E087E190E00E94662B60E08CE03D
:101B200090E00E94662B60E08DE090E00E94662BC2
:101B300019821A821B821C821D821E821F821886B5
:101B400048E050E068E170E0CE0101960E94562B1B
:101B500040E050E0BA0180E290E00E94782B80E003
:101B60000E943A1D0E94691D0E944C0D2896E2E0D9
:101B70000C94182B0E94540D0895682F8EE090E06D
:101B80000E94662B0895A6E0B0E0E9ECFDE00C941D
:101B9000FA2A0E94D8218C018091700290917102E2
:101BA0008017910781F019821A820E94D821682F2C
:101BB00049815A81792F80E090E00E943C04109383
:101BC0007102009370022696E4E00C94162B0E949A
:101BD000E42160937E0270937F0280938002909351
:101BE000810260937A0270937B0280937C029093CF
:101BF0007D0208950E94E42160937E0270937F022B
:101C000080938002909381026093760270937702B2
:101C100080937802909379020895089508950E9420
:101C20000D0E089508950E94120E08958EEE90E113
:101C30000E9479120E940E0E0E940F0E089581E0FC
:101C400008950E941F0E08950E941F0E0895089582
:101C500008950E94270E0E94280E08950E940D11DB
:101C60000E94100408950E94CF210E94791D0E94B5
:101C7000F1140E94D1110E942E0E80E00E94E41205
:101C80000E94130E0895A6E0B0E0E9E4FEE00C9493
:101C9000F22A0E94210EC82E811111C00E94C30D8C
:101CA000C12C0E94BC1E0E941015882309F45DC03F
:101CB0000E94FA0D0E94BF140E9487135AC00E940E
:101CC000E71182E7A82E82E0B82E750110E0F70137
:101CD00001917F01812F0E9430111F5F143009F4A0
:101CE00041C00817A1F38091820281FD0E94361144
:101CF0000E94240E982E10E088248394812F0E9445
:101D00003011082FF50181915F01081729F1F12C9D
:101D1000EE24E394D02ED8268D2D8E21A9F0992083
:101D200099F0F9821A830E94D8219C838B838D823B
:101D300091E0802F8E2109F490E049815A816B81D6
:101D40007C818D810E943C04F394EE0CF5E0FF123F
:101D5000E3CFF501319700831F5F143079F60E94BD
:101D6000E70D9FCF0813BFCF99CF0E94BF14C110BA
:101D7000A3CF0E947F1A0E9423042696ECE00C94C5
:101D80000E2B1F93CF93DF930E94FD0FEC01C11523
:101D900080E5D807F0F5C11580E4D80708F09CC0AD
:101DA000C03ED10520F5CD3CD10508F082C0C83A2F
:101DB000D10578F4C53AD10508F073C0C130D1051A
:101DC00019F1209709F1C430D105F0F4D0E0C0E05A
:101DD0001BC0C33CD105D0F7C85AD0E0CC0FDD1FE3
:101DE000C55ADE4F0990D881C02DD4640DC0C115ED
:101DF00080E2D80708F0D1C0C11581E0D80708F00B
:101E00005AC0C83ED10510F7CE01DF91CF911F9186
:101E10000895C03682E5D80718F5C03482E5D807A2
:101E200008F06BC0C03282E5D80708F05FC0C1156A
:101E300082E5D80708F497C02C2F2695269580E2D6
:101E4000289F900111248C2F8370C1E0D0E002C044
:101E5000CC0FDD1F8A95E2F7C22BD32BDD68D4CFE0
:101E6000C03A82E5D80760F4C03882E5D80708F4A4
:101E700059C0CF71D0E0DC2FCC27C46FD06AC4CF5B
:101E8000C03C82E5D80708F462C0C03E82E5D807AE
:101E900008F09CCFDC2FCC27CC27DF71C06FD06A35
:101EA000B3CFC55AD0E0CF56DE4FC881D0E0D06462
:101EB000ABCFD065A9CF8D2F0E949F10182FCE01D8
:101EC00099270E94FD0FC12FD0E0DC2FCC27CC2713
:101ED000DF71C82BD92B98CFCE0199270E94FD0F17
:101EE000CC27DF70C82BD92BD06A8ECFCF71D0E032
:101EF000DC2FCC27C16FD06A87CF2C2F2695269553
:101F0000277080E2289F900111248C2F8370C1E0FC
:101F1000D0E002C0CC0FDD1F8A95E2F7C22BD32B95
:101F2000DC6872CF2C2F26952695277080E2289F9B
:101F3000900111248C2F8370C1E0D0E002C0CC0F3F
:101F4000DD1F8A95E2F7C22BD32BDA685DCF8C2F89
:101F50008F710E949F10C82FD0E0DC2FCC27CC2798
:101F6000DF71D06251CF8C2F8F710E949F1055E08E
:101F7000D695C7955A95E1F7CF70D0E0DC2FCC27E6
:101F8000282F30E084FF05C044E0220F331F4A951C
:101F9000E1F7C22BD32BD06937CF8D2F8F710E94E1
:101FA0009F10182FCE0199270E94FD0FC12FD0E05E
:101FB000DC2FCC27CC27DF71C82BD92BD2CF462FD3
:101FC000672F743028F4453080F40E94DF1608959E
:101FD0007D3F39F4411109C041E060E00E94EB16F9
:101FE00008957C3F11F44423C1F390E080E008950C
:101FF0000E94DF0F0E94C10E089582389105B9F149
:10200000B0F48133910509F47DC048F4893291051B
:1020100009F46DC08A32910509F47BC008958533B7
:10202000910509F45FC08933910509F10895833E54
:102030009105D9F138F4803E910529F1823E910550
:1020400079F10895863E9105D9F1873E910509F40D
:102050003EC0843E910541F52091130321FF24C029
:102060008091120384FD19C087EE90E008952091BD
:102070001203237009F05AC02091130323FF14C0E8
:1020800089E290E008952091120320FD38C030913C
:10209000130330FF09C024FF43C090E080E008959F
:1020A0002091120322FDF7CF08952091120322FD03
:1020B0003AC03091130330FD39C024FFF5CFEDCF86
:1020C0002091120323FFF0CF24FDE7CFCDCF209145
:1020D000120323FD2EC03091130331FFEECF84EEA7
:1020E00090E008952091120325FFDECFC9CF209103
:1020F000120325FD21C02091130323FFD5CF89E3CF
:1021000090E0D2CF2091120326FFCECF8AE290E05A
:1021100008952091120326FFC7CF81E390E0089530
:1021200083EE90E0089582EE90E0089580EE90E0D6
:10213000089586EE90E0089585E390E008959091EB
:10214000120392FF10C041E0282F2471243009F0BF
:1021500040E031E0282F2871283009F030E04317A3
:1021600011F02CE0822793FF10C041E0282F24714A
:10217000243109F040E031E0282F2871283109F09E
:1021800030E0431711F02CE082273091130330FF29
:1021900010C051E0282F2171213009F050E041E0BA
:1021A000282F2871283009F040E0541711F029E059
:1021B000822731FF10C041E0282F2171213109F021
:1021C00040E031E0282F2871283109F030E0431732
:1021D00011F029E0822794FD877E089580E008951C
:1021E0000E94100D08950E94E7112FEF86E791E0FD
:1021F000215080409040E1F700C000000E94E711AC
:1022000080E00E94301180FF04C00E94F0100E9404
:102210003F2208950E94F31008950E94170D811126
:1022200002C00E94BA0D0E94230D809382020E9478
:102230002D0D90931303809312030E940A110E94A4
:10224000280D0E94B3078091D8010E94CB07089502
:1022500008950E942811089508950E942C11089550
:10226000E82FF0E0E85EFC4F80810895089580EA51
:102270008A95F1F7089500C008950E9437110895D6
:10228000F894E82FE295EF70F0E031A1282F2F703D
:1022900081E090E001C0880F2A95EAF7982F909589
:1022A000932391A392A1892B82A378940895CF932D
:1022B000DF9381E30E94401183E30E94401182E397
:1022C0000E94401186E30E944011C4E9D1E0899147
:1022D0008F3F11F00E94401181E0C939D807B9F74A
:1022E000DF91CF910895B0E0A0E0E9E7F1E10C942F
:1022F000F62AEC01D62E062F10E0C80187569E4F15
:102300007C01FC0180818F3F09F444C0F894E82FE0
:10231000E295EF70F0E091A18F7021E030E001C014
:10232000220F8A95EAF7892F822B81A382A120951B
:10233000282322A378940E943B11E4E9F1E031E0E4
:10234000C12C21912F3F59F1A22FA295AF70B0E07F
:1023500090968C9190E02F7002C0959587952A9564
:10236000E2F780FD1CC0832FC82A330F81E0E939D2
:10237000F80739F7F70180818F3F11F00E94401173
:1023800061E0C11001C060E08D2D0E943D11C00FC1
:10239000D11FC882CDB7DEB7E8E00C94122B80E0E5
:1023A000E3CF0E94571184E0E8E1F3E0DF01982FCA
:1023B0001D929A95E9F7E4E1F3E0DF011D928A9519
:1023C000E9F784E00E9424120E9429110895A4E0F4
:1023D000B0E0EDEEF1E10C94FB2A19821A821B8227
:1023E0001C8210E0612FCE0101960E9473111F5FC5
:1023F0001430C1F744E050E0BE016F5F7F4F84E1CD
:1024000093E00E94322B21E0009709F420E0892B11
:1024100061F089819A81AB81BC8180931403909390
:102420001503A0931603B093170344E068E173E02B
:1024300084E193E00E942512182F0E942D11812F14
:102440002496E3E00C94172B0895B0E0A0E0EBE2B3
:10245000F2E10C94F62A6C017B01042FC22F222397
:1024600079F081E0809385020E94D82190938402C4
:102470008093830280E0CDB7DEB7E8E00C94122BA6
:10248000D0918502DD23B1F3809183029091840283
:102490000E94F021059770F310E0A801B601C70172
:1024A0000E94322B892B31F0A801B601C7010E948E
:1024B0003F2BCD2F109285028C2FDDCF0E94BD24A3
:1024C0000E94330E0E94CA2408950E94CF240E94C5
:1024D000430E0E94E92408950E9471210E94A324C2
:1024E0000E94160E0E945E120E9465120E94290E22
:1024F000FBCF9093C5018093C4010895AB0124E6FE
:1025000030E0BC0188E70E94FB2221E0892B09F022
:1025100020E0822F0895B0E0A0E0E1E9F2E10C9420
:10252000F62A6C017B0164E670E088E70E94612274
:102530008C01E601EC0CFD1CCE15DF0561F40E9458
:10254000432381E00115110509F080E0CDB7DEB726
:10255000E8E00C94122B17FDF2CFFE01849164E6A3
:1025600070E00E94CD228C012196E6CF0F931F933D
:102570009B0104E610E0AC0160E488E70E941C23A4
:1025800021E0892B09F020E0822F1F910F910895FF
:102590000E945B22089508950E94CB120895ECE1F9
:1025A000F3E080E092E0DF019C011D922150304079
:1025B000E1F7F0932105E09320058FEF9FEF9093D3
:1025C000AC028093AB020895CF930E94CB120E947D
:1025D000CC128093A70280FD11C080E88093A602F0
:1025E0000E94C8126BE070E083EF92E00E948B12B1
:1025F000811106C0C0E08C2FCF91089580E2EECF0C
:102600008091A70265E070E081FD27C08EEE92E028
:102610000E948B12882371F36DE070E08CED92E0E4
:102620000E948B12C82F882329F30E94E421605A4C
:1026300075418F4F9F4F60931C0570931D058093CC
:102640001E0590931F050E94CF1281E08093AA027D
:102650008093A9021092A802CECF89EE92E0D8CF43
:102660002091A60236E0839FC0011124629F800D55
:10267000911D1124811522E0920714F090E080E072
:10268000845E9C4F90932105809320050895CF93FD
:10269000DF9320912005309121052C513340A90171
:1026A000460F571F4130524020F060E072E0621B3D
:1026B000730B4091AB025091AC02FC01C901620F57
:1026C000731FC1E0D0E08617970738F05093AC0233
:1026D0004093AB02DF91CF9108952491DC01A45E79
:1026E000BC4F3C91321781F02C939C01A5E03695AC
:1026F0002795AA95E1F7DE0102C0AA0FBB1F2A9514
:10270000E2F79D014A2B532B01963196DCCF809145
:10271000AA02811103C08091A90208950E94E421B8
:10272000605A75418F4F9F4F60931C0570931D0534
:1027300080931E0590931F058091A9028111EBCF14
:1027400062E070E08AED92E00E948B12882319F318
:1027500081E08093A902DFCFA6E0B0E0E2EBF3E1F5
:102760000C94EC2A182F8091AB029091AC02892B2B
:1027700009F18091AA028823E9F08091A8028111D1
:1027800019C00E9487131C821B8222242394312C9F
:1027900003E065EAE62E61E0F62E77E0672E809191
:1027A000AB029091AC02009729F0BC81BB2349F0A9
:1027B000111107C02696E2E10C94082B2B812F5FA4
:1027C0002B833B81C32ED12C210102C0440C551C0C
:1027D0003A95E2F7920128233923232B79F380914C
:1027E000A70280FD3EC08B818295880F8076809302
:1027F0000601960136952795369527952093090170
:10280000815E8093070120930A0167E070E084E015
:1028100091E00E947E12882369F2C60135E0880F9C
:10282000991F3A95E1F72091A70220FD28C060E2A8
:1028300070E0845E9C4F0E94B612882309F4BACFE0
:10284000C201809590954090AB025090AC02482216
:1028500059225092AC024092AB024C814F5F4C83A4
:102860009ECF8B81880F880F880F8093060110926E
:102870000901895F8093070100930A01C6CFA6E88A
:10288000B2E0E0E21D92EA95E9F721EA31E03E8309
:102890002D832DE9C22E21E0D22EAD81BE816D9116
:1028A000BE83AD83F60121916F01280F392F311DB1
:1028B000A901445E5C4F5A834983E62FF0E0EA5752
:1028C000FD4F30E020E0762C721A922C022E01C0CF
:1028D000990C0A94EAF769817A81A12CDB01BD90F9
:1028E000BD01B920472D4A194770842E042E000CD3
:1028F000550BBB2D01C0BB0F8A94EAF78B2E519567
:10290000419551094770552701C0B6944A95EAF799
:102910008B28B0808B288082A39448E0A412DECF5D
:102920002F5F3F4F31962830310569F6AD81BE816A
:10293000EA16FB0609F0B1CF60E270E086E892E0AB
:102940007ACF8091A9029091AA02911103C091E0DF
:1029500089270895882369F062E070E088ED92E0AD
:102960000E948B12811103C08091A90208951092D8
:10297000A9028091A902EBCF0E94D30208950F9380
:102980001F938091AA02882311F160E080E00E94E9
:1029900030130E94BC1480E00E94AC138091A90205
:1029A0008823A9F00E94E42100911C0510911D05C7
:1029B00020911E0530911F05601B710B820B930B3C
:1029C0006F3F7F4F8F4F9F4710F40E94A1141F91BC
:1029D0000F9108958FE891E00197F1F700C0000092
:1029E000089581E08093AE0225982D9A24982C9A20
:1029F0000E94EA142091AE0240EB52E0FA018E2FC1
:102A0000841B821708F0089583B185FB882780F91D
:102A10001C9904C090E0892B8193F1CF92E0FBCF09
:102A2000A8E1B0E0E6E1F5E10C94EF2A10E000E067
:102A300082E0982E94E0A92EB12C2DEF822E7724DF
:102A400073943CEF632E43E0542E8091AE0218172E
:102A500028F0802F6896EFE00C940B2BE12EF12CE0
:102A6000E3B1E5FBEE27E0F91C997DC080E08E2BF9
:102A7000D701A055BD4FEC919E2F9370981709F484
:102A800070C0EE0FEE0FE82BEC93EF70F0E0EB551B
:102A9000FE4FC70181559D4F6C018081F6019081E9
:102AA000890F808320E084303CF1F701E355FD4F2E
:102AB00080818F5F80830E94D8211D876E86682F5A
:102AC0008F87988B598A7A8A412F5CEF792F83E020
:102AD00091E00E943C040E94D8211B8B6C8A682FD5
:102AE0008D8B9E8B5F8A188E412F5CEF792F83E050
:102AF00090E00E943C0421E0F60180818D3F3CF58E
:102B0000F701E355FD4F8081815080830E94D821D9
:102B100019838A82682F8B839C839D827E82412FBA
:102B20005DEF792F82E091E00E943C040E94D82161
:102B30001F838886682F89879A879B861C86412FEA
:102B40005DEF792F82E090E00E943C0421E0F601E5
:102B50008081082E000C990BB5010E94772A808392
:102B6000022B1F5F72CF82E082CF84E0089550E095
:102B7000440F551F9AE0699F400D511D112498E2A2
:102B8000899F400D511D1124CA01899608950F9304
:102B90001F93CF93DF938430C8F46430B8F445308A
:102BA000A8F40E94B7158C010E94482BC82FD0E0D2
:102BB000DC2FCC27C80101960E94482B9E01282BB0
:102BC000C901DF91CF911F910F91089590E080E0AE
:102BD000F8CF0F931F93CF93DF93122F032F8430DF
:102BE00078F4643068F4453058F40E94B715EC016D
:102BF000602F0E94662B612FCE0101960E94662BEA
:102C0000DF91CF911F910F910895FF920F931F9322
:102C1000CF93DF93F42E843040F5611126C024E079
:102C2000829F8001112407531F4F82E090E04423CC
:102C300011F090E080E0800F911F0E94482BC82F78
:102C4000D0E0DC2FCC2783E090E0FF2011F081E082
:102C500090E0800F911F0E94482B9E01282BC901F4
:102C6000CDB7DEB7E5E00C94152B90E080E0F8CF0F
:102C70000F931F93CF93DF93142F022F8430F0F420
:102C800061111CC094E0899FE0011124C753DF4FFC
:102C900082E090E0442311F090E080E0632F8C0FFD
:102CA0009D1F0E94662B83E090E0112311F081E0CC
:102CB00090E0602F8C0F9D1F0E94662BDF91CF91BB
:102CC0001F910F9108951F93CF93DF93C0E0D0E041
:102CD00011C0412F6D2F8C2F0E94DB029C01412FD0
:102CE0006D2F8C2F0E94E9151F5F153091F7DF5F64
:102CF000D43011F010E0EDCF41E060E08C2F0E9465
:102D0000F2029C0141E060E08C2F0E94381640E006
:102D100060E08C2F0E94F2029C0140E060E08C2F6A
:102D20000E943816CF5FC43091F6DF91CF911F918A
:102D30000895EF92FF920F931F93CF93DF93EC01CF
:102D40008A017C01E60EF71ECE018996CE15DF05BD
:102D500029F4CDB7DEB7E6E00C94142BC03AD105C8
:102D600040F40E94482BF80180830F5F1F4F21968B
:102D7000EBCFF8011082F9CFB0E0A0E0E2ECF6E191
:102D80000C94F62A7C016A018C01060F171FEC01D6
:102D9000CE018996C017D10729F4CDB7DEB7E8E098
:102DA0000C94122BC03AD10540F4FE01EE19FF0934
:102DB000EC0DFD1D60810E94662B2196E9CF8430C9
:102DC00038F4643028F4453018F40E94C71508958B
:102DD00090E080E00895843028F4611103C00E94DF
:102DE0000516089590E080E0089580E1089587E257
:102DF00093E00895EF92FF920F931F93CF93DF9389
:102E0000EC018A017C01E60EF71ECE0187529F4F2E
:102E1000CE15DF0529F4CDB7DEB7E6E00C94142B10
:102E2000C73223E0D20740F40E94482BF801808388
:102E30000F5F1F4F2196E9CFF8011082F9CFB0E064
:102E4000A0E0E5E2F7E10C94F62A7C016A018C012E
:102E5000060F171FEC01CE0187529F4FC017D107F5
:102E600029F4CDB7DEB7E8E00C94122BC73223E08B
:102E7000D20740F4FE01EE19FF09EC0DFD1D608143
:102E80000E94662B2196E7CFCF93DF93C9EDD0E068
:102E900060E0CE010E94662B2196C11584E0D80720
:102EA000B9F7DF91CF910895A8E0B0E0EAE5F7E146
:102EB0000C94F42AF82E8FE08F1508F46EC08FEF73
:102EC00093E00E94482B811168C009ED10E0F110D9
:102ED00035C0FE0131966F0188E011928A95E9F7BD
:102EE0007801FFEFEF1AFF0AC8010E94482B89837F
:102EF0001A82882309F451C08130D1F4580182E04C
:102F0000A80EB11CC7010E94482B8A83882309F4AC
:102F100044C09FEF980F9330F0F4780193E0E90EEE
:102F2000F11CC5010E94482B8B838823B1F11C82C0
:102F300060E0C6010E94CA1B8701D2CF011594E050
:102F4000190759F1C8010E94482B811101C0FA9458
:102F50000F5F1F4FBCCF7501843051F702E010E0C6
:102F60007501EFEFEE1AFE0AC5010E94482BF6012B
:102F7000E00FF11F8083882381F08C3741F4E2E079
:102F8000F0E0EC0FFD1FE00FF11F1082D1CF0F5FBB
:102F90001F4F57010730110519F72896EAE00C94E6
:102FA000102BCF93DF93EB0186319C4711F50E94E4
:102FB000EE0B9D81992399F08A7A91E009F490E0D3
:102FC0009093B102811109C089E20E94BE200E9443
:102FD000A20C80E0DF91CF91089585E3F6CF809138
:102FE000B102811104C089E20E94D520F0CF85E3AF
:102FF000FBCF81E0EFCFCF93DF93EC01FB01858125
:10300000882309F4D2C09E0130572332310508F0DD
:10301000B2C00E942D0D9093130380931203FE0102
:10302000E150F047E232F10520F4E855F44D0C94FC
:10303000CC2A8091120381608093120393C0809107
:1030400013038860809313038DC080911203826004
:10305000F3CF809112038460EFCF809112038860D8
:10306000EBCF809113038160EDCF809113038260D9
:10307000E9CF809112038061DFCF809112038062DB
:10308000DBCF809112038064D7CF0E9468078091C4
:1030900012038068D1CF809112038C60CDCF8091D4
:1030A00013038360CFCF809112038E7FC5CF8091B1
:1030B0001303877FC7CF809112038D7FBDCF80918F
:1030C00012038B7FB9CF80911203877FB5CF809198
:1030D00013038E7FB7CF809113038D7FB3CF809181
:1030E00012038F7EA9CF809112038F7DA5CF80918F
:1030F00012038F7BA1CF0E946807809112038F7704
:103100009BCF80911203837F97CF809113038C7F95
:1031100099CF8091120382FB992790F921E09227A1
:1031200090FB82F990FB83F987CF80911303982F4E
:10313000909591708E7F892B90FB81F983CF909130
:103140001203892F8F7B96FF806476CF0E946807D9
:1031500090911203892F97FB87F980586DCF81E0FA
:103160000E94BD0D80911203909113030E94320DB5
:103170000E94680780E0DF91CF91089580E0F0CF52
:1031800090911203892F8F7E94FF806155CF90918B
:103190001203892F8E7F90FF81604ECF9091130391
:1031A000892F877F93FF88604DCF81E0E4CF282F60
:1031B00035EB2303C001112497FF04C08058910907
:1031C000892F089580589F4FFBCF8091B80280FFD0
:1031D0000DC06091100170E0660F771F60387105B7
:1031E00070F56115710569F1862F089581FF07C09B
:1031F0006091100184E0689FB0011124EFCF6091CD
:10320000100182FD0AC08091B7028823A9F02091A5
:103210000F0160911001821710F088E0ECCF869FBB
:10322000C001112433E0880F991F3A95E1F7622F0E
:1032300070E00E94772AD2CF68E070E0D5CF8FE7A8
:10324000089581E008958091B80280FF0CC06091DC
:103250000C0170E075956795759567956115710519
:1032600049F1862F089581FF06C060910C0170E03E
:1032700075956795F3CF60910C0182FD0BC090911D
:10328000B6029923A1F060910B0180910C01961771
:1032900038F0682F70E06038710500F38FE708950B
:1032A000899FC001112470E00E94772AF4CF61E069
:1032B00070E0D7CF81E008959091BB022091BC02CD
:1032C000922B2091BE02922B2091BD02922B31F0C5
:1032D00098E09093B70291E09093B6028D3C31F460
:1032E0000E94E51881958093BC0208958E3C19F4E4
:1032F0000E94E518F8CF8F3C31F40E94E5188195C3
:103300008093BB020895803D19F40E94E518F8CF20
:10331000893D29F40E9423198093BD0208958A3DB6
:1033200021F40E9423198195F7CF8B3D31F40E943F
:10333000231981958093BE0208958C3D19F40E9453
:103340002319F8CF9FE2980F983070F4815D990BA4
:1033500021E030E001C0220F8A95EAF78091BA029D
:10336000822B8093BA0208958D3D31F48091B8028A
:1033700081608093B80208958E3D21F48091B80257
:103380008260F7CF8F3DB9F78091B8028460F1CFAA
:103390004091BB028D3C59F48091BC0287FF0DC067
:1033A0001092BC0241110BC01092B70208C08E3CB3
:1033B00081F48091BC0218169CF3442381F0809123
:1033C000BD029091BE02892B09F05AC01092B6023C
:1033D00008958F3C49F447FFF0CF1092BB028091D3
:1033E000BC028111ECCFE0CF803D19F41416ACF390
:1033F000E4CF9091BD02893D29F41916F4F610929C
:10340000BD02DBCF8A3D19F497FFD7CFF8CF90915B
:10341000BE028B3D29F497FFD0CF1092BE02CDCFD4
:103420008C3D19F41916CCF3C8CF9FE2980F983051
:1034300090F4815D990B21E030E0B90102C0660F84
:10344000771F8A95E2F7CB0180959091BA02892384
:103450008093BA02B2CF8D3D31F48091B8028E7F55
:103460008093B802AACF8E3D21F48091B8028D7F5F
:10347000F7CF8F3D09F0A1CF8091B8028B7FF0CFBD
:1034800008950E94D8219C019091BB028091BC02BA
:10349000982B21F03093B5022093B4029091BD0295
:1034A0008091BE02982B21F03093B3022093B20298
:1034B00089EB92E00E94BB1F089586E0E9EBF2E001
:1034C000DF011D928A95E9F71092B7021092B602B9
:1034D0001092B8020895FC01828181110EC083818F
:1034E00081110BC08481811108C091E08581811117
:1034F00001C090E0892F8170089581E0FCCFA6E0A3
:10350000B0E0E5E8FAE10C94FB2A86E0E9EBF2E0B2
:10351000DE01119601900D928A95E1F71092BB029F
:103520001092BC021092BD021092BE028B819C814F
:10353000892B89F08091B4029091B5020E94F0210C
:10354000AC019091B7029923C9F1809111018417C0
:10355000150608F440C08D819E81892B91F08091E1
:10356000B2029091B3020E94F021AC019091B60298
:10357000992309F46AC080910D018417150608F497
:1035800072C0BE016F5F7F4F89EB92E00E940621FF
:10359000811105C089EB92E00E946B1A81110E9493
:1035A000411A86E0FE013196A9EBB2E001900D923E
:1035B0008A95E1F72696E3E00C94172B20911201EF
:1035C0008AE0289F900111242417350720F69F5F79
:1035D0009093B70202C09F3FD1F71B81112359F08E
:1035E0000E94E5189FEF11160CF491E0899F802D41
:1035F00011248093BB021C81112359F00E94E5180D
:103600009FEF11160CF491E0899F802D1124809377
:10361000BC028091BB02882309F49DCF1091BC02AB
:10362000112309F498CF0E94D718882351F0809372
:10363000BB02812F0E94D718882329F08093BC02F7
:103640008ACF81E0F4CF81E0F9CF20910E018AE0AA
:10365000289F900111242417350708F092CF9F5F0F
:103660009093B60202C09F3FD1F71D81112359F0FC
:103670000E9423199FEF11160CF491E0899F802D71
:1036800011248093BD021E81112359F00E94231939
:103690009FEF11160CF491E0899F802D11248093E7
:1036A000BE028091BD02882309F46BCF1091BE0247
:1036B000112309F466CF0E94D718882351F0809314
:1036C000BD02812F0E94D718882329F08093BE0263
:1036D00058CF81E0F4CF81E0F9CFB0E0A0E0E3E79C
:1036E000FBE10C94F72AE82FF0E0E250FD4FD49074
:1036F000282F26952695269530E0F901E256FC4FB5
:103700000491877010E0082E02C0159507950A9461
:10371000E2F701701127F901E257FC4FE490F12C18
:10372000082E02C0F594E7940A94E2F791E0E922AA
:10373000FF24F901E258FC4FC491D0E002C0D595B6
:10374000C7958A95E2F7C170DD270115110519F0BB
:1037500081EE0E947F04E114F10419F086EE0E94CC
:103760007F048D2D0E941305E114F10419F086EEFB
:103770000E94C8040115110519F081EE0E94C804C9
:10378000CD2B19F08CE20E941305CDB7DEB7E7E030
:103790000C94132BEF92FF920F931F93CF93DF9311
:1037A000EC01162F0AE08881882309F454C0813087
:1037B00009F04EC08981813099F47E0122E0E20E49
:1037C000F11C8A810E941305E7012196812F815007
:1037D00050F3EFE9FFE03197F1F700C00000F7CFB9
:1037E000823041F47E0182E0E80EF11C8A810E9461
:1037F0007F04EACF833041F47E01E2E0EE0EF11C5B
:103800008A810E94C804E0CF843011F02196DDCF78
:103810002A81229690E080E0AE014F5F5F4F2053F7
:10382000330B2A30310548F0019778F2EFE9FFE0D9
:103830003197F1F700C00000F7CF089FB001099F52
:10384000700D1124C901860F971F2981EA01E4CF69
:103850000E946D1BBACFCDB7DEB7E6E00C94142BF7
:103860000F931F93CF93DF93C42FD22FFC01858139
:103870008823C9F04093C1020E94D8219093C002CE
:103880008093BF0280E28C0F883040F4C77081E0E3
:1038900001C0880FCA95EAF70E941C05DF91CF91FD
:1038A0001F910F9108951091C102141332C080919D
:1038B000BF029091C0020E94F021883C910548F51A
:1038C000C0E2CD0F1D17B9F080E2810F883040F4BF
:1038D000177081E001C0880F1A95EAF70E9423054E
:1038E000C83048F481E09D2F977001C0880F9A95E9
:1038F000EAF70E941C05802F0E941305C83070F65D
:10390000D77081E001C0880FDA95EAF70E9423059D
:10391000C5CF80E28C0F883008F6C77081E001C007
:10392000880FCA95EAF7F2CF0F93DB0188519C47C5
:1039300087309105A0F5FC01E653F44D0C94CC2A98
:1039400006E221EE41EE6AE17CE7CD010E94301CE7
:1039500080E00F91089507E225EE45EE6BE17CE7EC
:10396000F4CF06E221EE40EE68E17CE7EECF07E21D
:1039700025EE44EE69E17CE7E8CF06E221EE42EE77
:103980006CE17CE7E2CF07E225EE46EE6DE17CE7F5
:10399000DCCF08E221E045EE6EE17CE7D6CF15965C
:1039A0008C91882319F01092C102D3CF81E0D1CF3E
:1039B0001F93CF93DF9387372CE7920759F0C1E02D
:1039C00088379C47E1F4FB01C581CC2371F10E944B
:1039D0001B1D06C0FB01C581CC23B1F00E94181D40
:1039E0000E94E0070E941E1DD82F0E941B1DC82F99
:1039F0000E94181D4D2F6C2F0E941709C0E08C2FBC
:103A0000DF91CF911F9108950E94181D0E94EC072D
:103A10000E941E1D182F0E941B1DD82F0E94181DCA
:103A2000412F6D2F0E941709EACF0E941B1DEECF78
:103A300080911501089580911401089580911301DA
:103A4000089585E290E00E94482B843289F486E252
:103A500090E00E94482B823059F487E290E00E9467
:103A6000482B91E0813109F090E0892F8170089511
:103A700080E0FCCFCF93C82F6FEF811164E285E225
:103A800090E00E94662B6FEFC11162E086E290E049
:103A90000E94662B6FEFC11161E187E290E00E9406
:103AA000662BCF910895089588E290E00E94482BFC
:103AB000682F70E090E080E008950895CF93C62FBE
:103AC0000E945D1D6C2F88E290E00E94662BCF91D2
:103AD000089580E00E943A1D60E070E0CB010E94F2
:103AE0005E1D0E9463160E94441781E00E943A1DE9
:103AF00008950E94531D0E94541D0E945D1D0E9446
:103B0000211D811102C00E94691D089508959C0124
:103B1000FB018581882351F0A90157574038510591
:103B200030F4822F0E94541780E0089581E00895B8
:103B30002FEFFC01208308950E94981D089580E0D6
:103B40000895B0E0A0E0E7EAFDE10C94F62AEC016C
:103B5000E62E0E949F1D811110C0E881E150E531E1
:103B6000B8F4F0E0EF52F44D0C94CC2A19828CE0BA
:103B70008A836E2DCE010E949723CDB7DEB7E8E091
:103B80000C94122B89818230C1F028F4813061F0CD
:103B90008FEF8883EECF833099F08430C9F71A8293
:103BA0001B821C821D82E5CF0E94E4210E94D22A42
:103BB0006A837B838C839D83DCCF0E94541DF6CF68
:103BC0008A81082F10E06E0193E0C90ED11C9CE1A0
:103BD000F92EF80E0430110560F6802F0E94301186
:103BE000F60181936F010F5F1F4FF012F3CFC1CF2A
:103BF0008981823031F0853059F68A810E94861D94
:103C0000B8CF6A817B818C819D810E94D22A0E94DB
:103C10005E1DAFCF4B816A8189810E94C7159827AD
:103C2000892798279D838C83A4CF2C813D813227BF
:103C3000232732274B816A8189810E94E91599CF18
:103C40000E94631696CF6E2DCE010E949C1D91CFCF
:103C50000E94F51689838DCF0E94F7169827892731
:103C600098279A83898385CF6B8170E089819A81B7
:103C7000AE014C5F5F4F9827892798270E94FA165C
:103C800078CF6B8170E089819A81AE014C5F5F4F84
:103C90009827892798270E941F176BCF0E944417E7
:103CA00068CF0E94B515D6CF6B8170E089819A816B
:103CB000AE014C5F5F4F9827892798270E9499167D
:103CC00058CF6B8170E089819A81AE014C5F5F4F64
:103CD0009827892798270E94BC164BCF41E08B81FB
:103CE000811101C040E06A8189810E94051697CF49
:103CF0002C813D8132272327322741E08B8181119E
:103D000001C040E06A8189810E94381632CF9C014F
:103D10003A9521153F4478F499279C0124503109A4
:103D20002432310578F02752310981E02E303105F7
:103D300050F080E008958F3F910579F370F390E0A3
:103D400080E0EBCF81E008950E94871E08950E94D5
:103D5000A41E882381F0E091C802F0E0EE0FFF1F5F
:103D6000E753FD4F808191818F3F2FE7920719F034
:103D700001969183808308958F929F92AF92BF9214
:103D8000CF92DF92EF92FF92CF93C090C902D09072
:103D9000CA020D2C000CEE08FF082091160130E03D
:103DA000E9ECF2E081E090E03296281739070CF058
:103DB000A7C06091FB027091FC028091FD0290917E
:103DC000FE020E94FF214B015C01C091160189ECAB
:103DD00088169104A104B10414F18091C80290E006
:103DE000019669E170E00E94772A8093C802880FEB
:103DF000991FFC01E753FD4F118210828C2FC831AF
:103E000008F087E18F5F809316010E94E4216093A0
:103E1000FB027093FC028093FD029093FE0282E00D
:103E2000C816D104E104F1040CF476C0A0E6BAEEA1
:103E3000A70196010E94D92A6B017C0188ECC89FDA
:103E400090011124032E000C440B550B280D391D35
:103E50004A1D5B1DA5E0B0E00E94D92A9B01AC0180
:103E6000C701B6010E948B2A69017A0181EFC81649
:103E7000D104E104F1042CF080EFC82ED12CE12C08
:103E8000F12C6091C4027091C5028091C60290919C
:103E9000C7020E94FF214B015C0185E68816910450
:103EA000A104B10484F00E94E4216093C4027093E1
:103EB000C5028093C6029093C7028091FF0280934F
:103EC000C302C092C202C091C302A091C202AC1B45
:103ED000BB0BA50194010E94E42A24E630E040E0F7
:103EE00050E00E94AD2AC20FC093FF02CF91FF9015
:103EF000EF90DF90CF90BF90AF909F908F900895FC
:103F000040815181052E000C660B770BC40ED51E27
:103F1000E61EF71E019648CFC12CD12C7601B1CFF9
:103F200090930503809304030895E0910403F091B6
:103F30000503309729F00190F081E02D099508954F
:103F400080E00895E0910403F0910503309721F09B
:103F50000280F381E02D09950895E0910403F0912A
:103F60000503309739F026E0DC012C930480F581BD
:103F7000E02D09950895E0910403F0910503309731
:103F800039F022E0DC012C930680F781E02D0995C1
:103F90000895A3E0B0E0EFECFFE10C94FC2A20913F
:103FA00002033091030328173907A1F0909303030C
:103FB00080930203E0910403F0910503309751F0E0
:103FC00023E029839B838A830084F185E02DCE0141
:103FD000019609952396E2E00C94182BA3E0B0E03B
:103FE000E4EFFFE10C94FC2A2091000330910103DF
:103FF00028173907A1F09093010380930003E09103
:104000000403F0910503309751F024E029839B834A
:104010008A830084F185E02DCE01019609952396CF
:10402000E2E00C94182B20910201309103012E5FE5
:104030003F4F80912101882379F08091120387FFFF
:104040000BC020910001309101012E5F3F4F9EE196
:1040500080E0915018F4089596E0FACFF90141916B
:104060009F014423B1F38F5FF4CF882321F1909116
:104070002101992311F19091120397FF1EC0E82F9F
:10408000E695E695E695EE31B0F420910001309189
:104090000101E20FF32FF11D228130E0877041E032
:1040A00050E002C0440F551F8A95E2F724233523C0
:1040B00081E0232B91F480E008952091020130915A
:1040C0000301F9013296285F3F4F9191981721F033
:1040D000E217F307D1F7EFCF81E008959C01FC01CF
:1040E00032969FEF80E04191461751F09F3F19F4BF
:1040F000411101C0982F8F5F8630A9F79F3F09F4C7
:104100000895290F311D97FD3A95F90162830895AD
:10411000FC01329608962191261303C0DF01119706
:104120001C92E817F907B9F70895E62FE695E6958A
:10413000E695EE3168F4E80FF92FF11D677021E084
:1041400030E001C0220F6A95EAF78281822B8283D8
:104150000895E62FE695E695E695EE3170F4E80FC2
:10416000F92FF11D677021E030E001C0220F6A9540
:10417000EAF720958281282322830895682F809171
:104180002101882359F08091120387FF07C0809195
:104190000001909101010E949520089580910201F3
:1041A000909103010E946E200895682F8091210153
:1041B000882359F08091120387FF07C08091000186
:1041C000909101010E94A92008958091020190918F
:1041D00003010E948820089580912101882379F0AD
:1041E0008091120387FF0BC0E0910001F091010163
:1041F00032968EE1DF011D928A95E9F70895E091EC
:104200000201F0910301329686E0F4CFDC01FB015C
:1042100011969C9111978181981322C012968C91CE
:104220001297882319F0928189131AC013968C91E2
:104230001397882319F09381891312C015968C91D6
:104240001597882319F0958189130AC014969C91BB
:10425000992321F081E02481291303C080E001C06B
:1042600081E08170089508950E943321089581119D
:1042700006C081E0809306030E943421089582E005
:10428000F9CF83E0809306030E94342108950E94B1
:104290003721089581E0809306030E943421089518
:1042A0000E944A210895089508950E945421089576
:1042B000089508950E9453210895CF930E94582194
:1042C0000E94E7110E945921C0E08C2F0E943011FA
:1042D000811105C0CF5FC430C1F7CF91089581E04F
:1042E000FCCF85B7806885BF85B7806885BF089596
:1042F0001F921FB61F9211248F939F93AF93BF936A
:1043000080910703811113C08091220590912305AC
:10431000A0912405B09125054196A11DB11D809362
:10432000220590932305A0932405B0932505BF9102
:10433000AF919F918F911F901FBE1F9018958091F4
:104340002A05843031F10E94F1031092070388E1BD
:1043500090E020E40FB6F894A895809360000FBE1B
:104360002093600083B7817F846083BF83B78160BF
:1043700083BF7894889583B78E7F83BF0FB6F894F8
:10438000A895809160008861809360001092600021
:104390000FBE08950E9468070E94F803089582E006
:1043A00084BD93E095BD9AEF97BD80936E0008950C
:1043B0002FB7F8948091220590912305A0912405B0
:1043C000B09125052FBF08952FB7F894609122056D
:1043D0007091230580912405909125052FBF0895A4
:1043E0009C014FB7F8948091220590912305A091EC
:1043F0002405B09125054FBF821B930B0895CF92E2
:10440000DF92EF92FF922FB7F894C0902205D090E0
:104410002305E0902405F09025052FBFA701960104
:10442000261B370B480B590BCA01B901FF90EF90BF
:10443000DF90CF90089578941F921FB61F92112499
:104440008F939F93AF93BF93809122059091230503
:10445000A0912405B09125050196A11DB11D809361
:10446000220590932305A0932405B0932505BF91C1
:10447000AF919F918F911F901FBE1F90189587E756
:1044800097E7909301088093000888E19AE00FB6BF
:10449000F894A895809360000FBE90936000FFCFC2
:1044A00088E19AE00FB6F894A895809360000FBE5B
:1044B00090936000FFCF1092B9008CE08093B80019
:1044C0000895B0E0A0E0E7E6F2E20C94F32AB82EFB
:1044D000EB010E94D8216C01EE24E394F12CC4314D
:1044E000D10560F025E0E22EF12CCF3FDC0731F062
:1044F000CE0164E170E00E94632A7B0184EAA82E69
:1045000094E8992E1092BC00A092BC000E94D82181
:104510008C018091BC0087FF0DC08091B900887F1D
:104520008830F9F08091B900887F8031D1F00FEFA9
:104530001FEF08C0C8010E94F021E816F90648F7ED
:104540000EEF1FEFCF3FDC07E9F2C6010E94F0211A
:10455000C817D907B8F6C801CDB7DEB7EBE00C94A1
:104560000F2BB092BB009092BC000E94D8218C010E
:104570008091BC0087FF0AC08091B900887F883194
:1045800011F08034A1F610E000E0E5CFC8010E94F0
:10459000F021E816F90660F7D3CF0F931F93CF935E
:1045A000DF93EB018093BB0084E88093BC000E9402
:1045B000D8218C018091BC0087FF11C02091B900E7
:1045C000287F81E090E0283211F490E080E091951E
:1045D00081959109DF91CF911F910F910895CF3F60
:1045E000DC0741F3C8010E94F021C817D90710F772
:1045F0008EEF9FEFEFCFB0E0A0E0E1E0F3E20C94AC
:10460000F62A6B018A017901B9010E946122E60153
:104610000C0D1D1DC017D10711F097FF08C024E92C
:104620002093BC00CDB7DEB7E8E00C94122BB701A5
:1046300089910E94CD22EECFB0E0A0E0E2E2F3E269
:104640000C94F62AC62F6A017901B8010E946122F2
:1046500097FD0CC0B8018C2F0E94CD22E601EC0C16
:10466000FD1CCE15DF0511F097FF08C024E920934B
:10467000BC00CDB7DEB7E8E00C94122BB8018991ED
:104680000E94CD22EECF84E98093BC0008958091F2
:10469000100308959B01BA0190912A059430E9F422
:1046A0008F708093E9009FEF8091E800915085FD25
:1046B00006C085ED8A95F1F700009111F5CF809144
:1046C000E80085FF0AC050E040E0C9010E948D2546
:1046D0008091E8008E778093E800089543E050E0F1
:1046E000BC0184E00E944A23089546E050E0BC01EA
:1046F00084E00E944A23089540E250E0BC0184E037
:104700000E944A230895CF93DF93EC0148E050E0E4
:10471000BC0181E00E944A2388E0FE01A8E0B3E0EA
:1047200001900D928A95E1F7DF91CF910895603263
:1047300031F440E250E0BC0182E00E944A23089537
:1047400080912905811109C00E946C270E94C92708
:104750008091E20084608093E20008951092290520
:1047600008950E944A2108956091260581E0611113
:1047700001C080E00E944121089590912A0581E0C6
:10478000943009F080E0609126050E944721089549
:1047900042E061EC81E00E94E82642E261EC84E0C4
:1047A0000E94E82642E261EC82E00E94E82642E2B2
:1047B00060EC83E00E94E82690912A0581E0943025
:1047C00009F080E0609126050E94372108958091CC
:1047D0002C05833009F463C030F48130E1F182307C
:1047E00009F4A0C008958A3009F48CC08B3009F414
:1047F00071C0893009F052C080912B05813209F0D7
:104800004DC080912F0590913005009719F00297C7
:1048100009F044C08091E800877F8093E800809190
:10482000E80082FF37C09091F3008091F200029778
:1048300031F48091F100813011F0863021F48091C3
:10484000F100809310038091E8008B778093E8005B
:104850000E941C2723C080912B05813AF9F4809196
:10486000E800877F8093E80080912F0590913005C4
:10487000892B61F468E088E093E070E00E942B26C9
:104880008091E8008B778093E800089560E090E0E5
:1048900080E0F3CF80912A058111C1CF08958091E6
:1048A0002B05813AD9F780912F0590913005892BFE
:1048B000A9F78091E800877F8093E8008091E80065
:1048C00080FFFCCF809121018093F1008091E8006E
:1048D0008E77BCCF80912B05813201F780912F0517
:1048E00090913005892BD1F68091E800877F8093E5
:1048F000E8000E941C2780912D05809321010E94D1
:104900006807089580912B05813241F68091E80077
:10491000877F8093E8000E941C2780912E0580935A
:104920001103089580912B05813A09F0B7CF80914A
:10493000E800877F8093E8008091E80080FFFCCF4B
:1049400080911103C1CF84B7877F84BF0FB6F894DD
:10495000A89580916000886180936000109260004B
:104960000FBE80E890E00FB6F894809361009093BA
:1049700061000FBE0E94502108950E946C270E9482
:10498000C927E2EEF0E080818460808378940E9401
:10499000482A089587E191E00E94901F0895809130
:1049A0002A05853031F480912A05853019F00E945E
:1049B000CA2108950E949F2180912805882399F398
:1049C0000E945D21882379F30E9477250E94680761
:1049D000EACFA0E2B0E0EFEEF4E20C94FC2A809182
:1049E0002A05843009F583E08093E9008091E8008E
:1049F00082FF1AC08091E80090E085FF09C050E076
:104A000040E060E270E0CE0101960E94DC2591E07A
:104A10008091E8008B778093E800992329F060E289
:104A2000CE0101960E94A11DA096E2E00C94182BE5
:104A30009A0140913105509132050E942025089538
:104A4000492F55274330510521F168F44130510574
:104A500009F443C04230510509F444C090E080E0BD
:104A600050E040E026C04132510551F1423251053B
:104A7000A9F76330710590F7FB01EE0FFF1FE854B3
:104A8000FE4F408151816B547E4FFB01808190E04D
:104A900010C099278130910581F0009729F0029785
:104AA000E9F6EEEAF3E002C0EAEDF3E0849190E08B
:104AB000AF01F901518340830895EEEBF3E0F6CFA7
:104AC0006330710558F6660F771FFB01E254FE4F05
:104AD0004081518189E090E0ECCF82E190E049E3B0
:104AE00054E0E7CF8BE590E04EED53E0E2CF80E17C
:104AF00089BD82E189BD09B400FEFDCF8091D80057
:104B00008F7D8093D8008091E00082608093E000E8
:104B10008091E00081FDFCCF0895AF92BF92CF92CB
:104B2000DF92FF920F931F93CF93DF936C01EB0102
:104B30008A010E943B27F82E811123C0011511051F
:104B400039F0F80180819181C81BD90BC80ED91E9C
:104B5000B12CA12C2097A9F08091E80085FD22C0FE
:104B60008091E8008E778093E80001151105A1F08F
:104B7000F80180819181A80EB91EB182A08285E0E2
:104B8000F82E8F2DDF91CF911F910F91FF90DF9025
:104B9000CF90BF90AF9008950E943B278823D1F219
:104BA000F82EEFCFF60181916F018093F1002197EC
:104BB000FFEFAF1ABF0ACECFAF92BF92CF92DF9274
:104BC000FF920F931F93CF93DF936C01EB018A0148
:104BD0000E943B27F82E811123C00115110539F0E1
:104BE000F80180819181C81BD90BC80ED91EB12C48
:104BF000A12C2097A9F08091E80085FD22C080912A
:104C0000E8008B778093E80001151105A1F0F80109
:104C100080819181A80EB91EB182A08285E0F82E14
:104C20008F2DDF91CF911F910F91FF90DF90CF904B
:104C3000BF90AF9008950E943B278823D1F2F82EB1
:104C4000EFCF8091F100F60181936F012197FFEF83
:104C5000AF1ABF0ACECFFC01809131059091320589
:104C600086179707A0F06115710529F49091E80067
:104C70009E779093E80090E06115710551F49111D1
:104C800008C08091E80082FF34C080E00895BC0134
:104C9000F2CF80912A058823C1F18530C1F180913E
:104CA000E80083FD30C08091E80082FDEACF80916A
:104CB000E80080FFE1CF8091F3002091F200382FCF
:104CC0006115710519F02830310558F091E0283050
:104CD000310509F090E02091E8002E772093E8005C
:104CE000CBCF81918093F100615071092F5F3F4FCD
:104CF000E7CF80912A05882341F0853041F08091EB
:104D0000E80083FFBECF81E0089582E0089583E04C
:104D10000895FC018091310590913205861797071F
:104D2000A0F06115710529F48091E8008E778093D9
:104D3000E80090E06115710551F4911108C080916F
:104D4000E80082FF35C080E00895BC01F2CF809179
:104D50002A058823C9F18530C9F18091E80083FDD7
:104D600031C08091E80082FDEACF8091E80080FFA9
:104D7000E1CF8091F3002091F200382F6115710589
:104D800019F02830310558F091E02830310509F04C
:104D900090E08091E8008E778093E800CBCF8491FB
:104DA0008093F1003196615071092F5F3F4FE6CF3C
:104DB00080912A05882341F0853041F08091E800F8
:104DC00083FFBDCF81E0089582E0089583E00895D8
:104DD000982F973028F08F708093E90081E0089534
:104DE0009093E900242F762F50E0981731F07091BE
:104DF000EC002091ED005091F00021FD02C09F5F7A
:104E0000E8CF3091EB003E7F3093EB003091ED0026
:104E10003D7F3093ED003091EB0031603093EB003B
:104E20007093EC002093ED005093F0002091EE0081
:104E300027FDE5CF80E0089580912B0587FF13C003
:104E40008091E80082FF06C08091E8008B77809314
:104E5000E80004C080912A058111F2CF0895809165
:104E60002A058823D9F38091E80080FFF8CF80914C
:104E7000E8008E77ECCF2091E4003091E50095E6D4
:104E8000A9012091EC00822F817020FF06C0809143
:104E9000E80080FF06C080E008952091E80022FD30
:104EA0001AC080912A05882389F0853089F0809185
:104EB000EB0085FD0FC02091E4003091E500421722
:104EC0005307F9F29150E1F684E0089582E00895E5
:104ED00083E0089581E008950E94DB270E94E32784
:104EE000E0EEF0E0808181608083E8EDF0E0808199
:104EF0008F77808319BCA7EDB0E08C918E7F8C9367
:104F000080818F7E80831092290508950F931F93CF
:104F1000CF93DF930E94DB270E94E327C8EDD0E008
:104F200088818F77888388818068888388818F7D56
:104F3000888319BC10922A05109226051092280524
:104F40001092270500EE10E0F80180818B7F8083AE
:104F500088818160888342E060E080E00E94E826EA
:104F6000E1EEF0E080818E7F8083E2EEF0E08081F0
:104F700081608083808188608083F80180818E7F5A
:104F80008083888180618883DF91CF911F910F9109
:104F90000895E8EDF0E080818F7E8083E7EDF0E01A
:104FA00080818160808384E082BF81E080932905D5
:104FB0000E9486270895E8EDF0E080818E7F80834F
:104FC0001092E20008951092DA001092E100089524
:104FD0001F920F920FB60F9211242F933F934F936E
:104FE0005F936F937F938F939F93AF93BF93EF9351
:104FF000FF938091E10082FF0BC08091E20082FF6D
:1050000007C08091E1008B7F8093E1000E94472AD6
:105010008091DA0080FF19C08091D80080FF15C010
:105020008091DA008E7F8093DA008091D90080FF32
:1050300096C080E189BD82E189BD09B400FEFDCF43
:1050400081E080932A050E94A0238091E10080FFE7
:1050500019C08091E20080FF15C08091E2008E7F30
:105060008093E2008091E20080618093E200809171
:10507000D80080628093D80019BC85E080932A050F
:105080000E94B4238091E10084FF2BC08091E20054
:1050900084FF27C080E189BD82E189BD89B5982F51
:1050A000917080FFFBCF8091D8008F7D8093D800D6
:1050B0008091E1008F7E8093E1008091E2008F7EFD
:1050C0008093E2008091E20081608093E200809111
:1050D0002605882309F449C084E080932A050E94AC
:1050E000BD238091E10083FF29C08091E20083FF0E
:1050F00025C08091E100877F8093E10082E080936A
:105100002A05109226058091E1008E7F8093E100B0
:105110008091E2008E7F8093E2008091E2008061C6
:105120008093E20042E060E080E00E94E826809107
:10513000F00088608093F0000E94B123FF91EF910E
:10514000BF91AF919F918F917F916F915F914F919F
:105150003F912F910F900FBE0F901F90189519BC83
:1051600010922A050E94AE2370CF8091E30087FD44
:1051700093E090932A05B3CF1F920F920FB60F9230
:1051800011242F933F934F935F936F937F938F934C
:105190009F93AF93BF93CF93DF93EF93FF93D09100
:1051A000E900DF708091EC00C82FC17080FDC0E87D
:1051B0001092E9008091F000877F8093F00078944E
:1051C0000E9400291092E9008091F000886080938D
:1051D000F000CD2BCF70C093E900FF91EF91DF91EC
:1051E000CF91BF91AF919F918F917F916F915F917F
:1051F0004F913F912F910F900FBE0F901F901895D8
:10520000AAE2B0E0E6E0F9E20C94FB2A8BE295E03A
:105210002091F100FC012193CF01F5E083339F073A
:10522000B9F70E94E7238091E80083FF1EC18091B7
:105230002B0590912C059A3008F017C1E92FF0E06A
:10524000EA51F44D0C94CC2A803899F0823809F058
:105250000CC180912F058F70873008F006C18093B4
:10526000E9008091EB0085FB882780F91092E90026
:1052700006C0809127059091280591118260909138
:10528000E800977F9093E8008093F1001092F1007E
:105290008091E8008E77E5C0882309F4D3C082307E
:1052A00009F0E3C080912D058111D6C080912F05B2
:1052B0008F702FEF280F263008F0D7C08093E900B9
:1052C0002091EB0020FFC8C0933031F48091EB00B7
:1052D00080628093EB00C0C09091EB00906190934E
:1052E000EB0021E030E001C0220F8A95EAF720931D
:1052F000EA001092EA008091EB008860EACF811109
:10530000B4C010912D051F778091E3008078812B28
:105310008093E3008091E800877F8093E8000E94FB
:105320001C278091E80080FFFCCF8091E30080681B
:105330008093E30082E0111183E080932A0595C0F9
:105340008058823008F091C080912D0590912E05F3
:105350008C3D23E09207A1F583E08A838AE289836A
:105360004FB7F894DE01139620E03EE051E2E32FC0
:10537000F0E050935700E49120FF03C0E295EF70F6
:105380003F5FEF708E2F90E0EA30C0F0C7968D93AC
:105390009D932F5F243159F74FBF8091E800877F9D
:1053A0008093E8006AE270E0CE0101960E942B260D
:1053B0008091E8008B778093E80057C0C096E7CFD4
:1053C00060912F0570913005AE014F5F5F4F0E94D5
:1053D0001825BC01892B09F448C09091E800977FFB
:1053E0009093E80089819A810E948926E1CF8038D4
:1053F000E1F58091E800877F8093E80080912605A1
:105400008093F10045CF811130C090912D059230ED
:1054100060F58091E800877F8093E80090932605EF
:105420000E941C2780912605882311F084E005C086
:105430008091E30087FDFACF81E080932A050E94E6
:10544000C82313C080912D05813079F481E0933019
:1054500009F080E0809328051092E9008091E8002F
:10546000877F8093E8000E941C278091E80083FFDB
:105470000AC08091E800877F8093E8008091EB006C
:1054800080628093EB00AA96E3E00C94172B0895BA
:10549000CF9380912A058823A1F0C091E900CF70B5
:1054A0009091EC00892F817090FD80E8C82B1092BC
:1054B000E9008091E80083FD0E940029CF70C0932D
:1054C000E900CF910895AA1BBB1B51E107C0AA1F99
:1054D000BB1FA617B70710F0A61BB70B881F991F95
:1054E0005A95A9F780959095BC01CD01089597FB39
:1054F000072E16F4009407D077FD09D00E94632A86
:1055000007FC05D03EF4909581959F4F08957095C6
:1055100061957F4F0895A1E21A2EAA1BBB1BFD01C6
:105520000DC0AA1FBB1FEE1FFF1FA217B307E40782
:10553000F50720F0A21BB30BE40BF50B661F771FDA
:10554000881F991F1A9469F76095709580959095BA
:105550009B01AC01BD01CF010895052E97FB1EF400
:1055600000940E94C42A57FD07D00E948B2A07FC92
:1055700003D04EF40C94C42A509540953095219553
:105580003F4F4F4F5F4F089590958095709561956F
:105590007F4F8F4F9F4F0895EE0FFF1F0590F4919F
:1055A000E02D099469279627692778278727782788
:1055B00008950E94232BA59F900DB49F900DA49F4A
:1055C000800D911D11240895B7FF0C94D92A0E94D3
:1055D000D92A821B930B08952F923F924F925F928C
:1055E0006F927F928F929F92AF92BF92CF92DF92F3
:1055F000EF92FF920F931F93CF93DF93CDB7DEB758
:10560000CA1BDB0B0FB6F894DEBF0FBECDBF0994EB
:105610002A88398848885F846E847D848C849B8442
:10562000AA84B984C884DF80EE80FD800C811B8150
:10563000AA81B981CE0FD11D0FB6F894DEBF0FBE7F
:10564000CDBFED010895A29FB001B39FC001A39FFC
:10565000700D811D1124911DB29F700D811D1124AB
:10566000911D0895FB01DC0104C08D91019080190A
:1056700021F441505040C8F7881B990B0895FB0155
:10568000DC0102C001900D9241505040D8F70895BE
:10569000F999FECF92BD81BDF89A992780B50895FA
:1056A000A8E1B0E042E050E00C948C2BDC01A40FA8
:1056B000B51F4150504048F0CB01840F951F2E91EB
:1056C0000E94672B41505040D0F70895262FF9993A
:1056D000FECF92BD81BDF89A019700B4021639F051
:1056E0001FBA20BD0FB6F894FA9AF99A0FBE089522
:1056F0000396272F0E94672B0E94662B252F0E945E
:10570000672B242F0C94672B0196272F0E94672B61
:105710000C94662BDC01CB01FC01F999FECF06C08D
:10572000F2BDE1BDF89A319600B40D92415050405F
:10573000B8F70895F894FFCF6B056B05BB05BB0563
:1057400020063C069A059A054106A806B706B70644
:105750005318C7185B18251829185F182D186318D7
:105760006F183918C0183D187318411877189F180A
:1057700045187B18A6184B18811889183118671816
:1057800035186B184F1885189518AF18BE181F18C4
:105790005718CE18B11CB71CA01CAB1CBD1CC31CD9
:1057A000C91CB61DC21DF81D0A1E151E201E231E73
:1057B000231E231EC81DC81D281E2C1E341E411E5C
:1057C0004E1E511E541E611E6E1E781E24294C2929
:1057D000352A4C29352A7F29A029352AF729032A79
:1057E000460266020021007F220003280850011EA5
:1057F0000A140103020101472383237C2375236ECE
:105800002301E200E900EA00B500B600B700CD00D0
:105810008301CC008A019201940121022302240217
:105820002502260227022A02B300B4006F0070008E
:105830009F01CB019F02A002818283E200E900EA7E
:1058400000B500B600B700CD008301CC008A0192FC
:105850000194012102230224022502260227022AA2
:1058600002B300B4006F0070009F01CB019F02A043
:1058700002818283F4F5F6F7663133323600081080
:10588000181810080000FF0100010000FFFF0000D1
:10589000010001FF004422B623054B046D04F00310
:0458A00009042904CA
:00000001FF
